:020000040800F2
:1000000068160020350800088104000883040008F1
:10001000870400088B0400088F040008000000001B
:100020000000000000000000000000009304000831
:1000300095040008000000009704000899040008D7
:100040004F0800084F0800084F0800084F08000834
:100050004F0800084F0800084F0800084F08000824
:100060004F0800084F0800084F0800084F08000814
:100070004F0800084F0800084F0800084F08000804
:100080004F0800084F0800084F0800084F080008F4
:100090004F0800084F0800084F0800084F080008E4
:1000A0004F0800084F0800084F0800084F080008D4
:1000B0004F0800084F0800084F0800084F080008C4
:1000C0004F0800084F0800084F0800084F080008B4
:1000D0004F0800084F0800084F0800084F080008A4
:1000E0004F0800084F0800084F08000800F002F809
:1000F00000F03AF80AA090E8000C82448344AAF188
:100100000107DA4501D100F02FF8AFF2090EBAE885
:100110000F0013F0010F18BFFB1A43F0010318473B
:10012000D4A30000F4A30000103A24BF78C878C11B
:10013000FAD8520724BF30C830C144BF04680C60ED
:10014000704700000023002400250026103A28BF35
:1001500078C1FBD8520728BF30C148BF0B60704739
:100160001FB51FBD10B510BD02F0DCFC1146FFF736
:10017000F7FF00F009F802F00EFD03B4FFF7F2FFFD
:1001800003BC00F0F7FA00008EB0002211464FF4D5
:10019000E13000F0FEFA95A002F05EFC9BA002F0B8
:1001A0005BFC00F06BFA00F0DFFA01F055F91BE19F
:1001B00001F0D3FA994801F0ECFB0020984908605F
:1001C00001F0DFFC022000F0BAFA01F0C6FA95480F
:1001D00001F0DFFB01F0D5FC022000F0B0FA01F0E5
:1001E0004CFA01F0D9FC904801F0FDFB002542E0FB
:1001F00000243CE0002736E0002630E040222021A9
:100200008A4800EB05202A23CDE90930CDE90B12FD
:100210002821864800EB04204A22CDE90512CDE9C9
:100220000701834972222823804800EB0720CDE98B
:100230000232049101909C2000907C4800EB062241
:10024000BC21184601F0BCFC4FF4FA7000F053FAE0
:100250001CB9012F01D106B910E0701CC6B20A2EDC
:10026000CCDB781CC7B2062FC6DB601CC4B20A2CDC
:10027000C0DB681CC5B2062DBADB00BF01F0FDF97A
:1002800001F08AFC01F07DFC022000F058FAFF200A
:100290000023FA227A210090664801F0B5FE01F0B1
:1002A000C0FAFF2001F0AAFF012003460022014608
:1002B000009001F0D8FF01200223002203210090CA
:1002C0000F2001F0D0FF0120032300220521009020
:1002D000282001F0C8FF01200423002205210090FE
:1002E000372001F0C0FF00200121CDE900011E23CD
:1002F0006E2205210290084602F006F80020012136
:10030000CDE900012D231E2205210290104601F0A7
:10031000FBFF01200021009137232D22CDE90110A0
:100320000F21052002F05BF801200022CDE900201A
:100330006E232D224B210290052002F050F801205F
:1003400000210B461222CDE900109621192002F05F
:10035000A2F80120009000231222D8210190192038
:1003600002F099F80020FF21334B34A2CDE90010B0
:100370001E21322002F0FBF90020FF21314B32A276
:10038000CDE900106421322002F0F1F90020FF21B4
:10039000314B32A2CDE900102821462002F0E7F9C6
:1003A0000020FF21314B32A2CDE900102D215E202B
:1003B00002F0DDF901201A4908601E4801F041F9F8
:1003C00000202E49C1F8A00101F0DBFB022000F063
:1003D000B6F901F052F901F0DFFB01F0D2FB022087
:1003E00000F0ADF900BFFEE7E2E600000D0A2D2D9A
:1003F00020322E3133696E636820657061706572DA
:100400002064656D6F202D2D0D0A000053544D336F
:100410003246313033433854360D0A00303C000840
:10042000A0812142D04B0008705B000830300008EA
:10043000303A000850000020300000206162636400
:1004400065666700380000204142436162633031D5
:10045000323334350000000040000020322E3133AA
:100460002220452D50617065720000004800002078
:100470005345454E475245415400000000802142FB
:10048000704700BFFEE700BFFEE700BFFEE700BF0A
:10049000FEE7704770477047704700000CB50020BA
:1004A000019000906C48006840F480306A49086010
:1004B00000BF6948006800F4003000900198401CBB
:1004C0000190009818B90198B0F5A06FF1D1624879
:1004D000006800F4003010B10120009001E000201D
:1004E00000900098012843D15C48006840F010005B
:1004F0005A4908600846006820F003000860084672
:10050000006840F002000860534840685249486063
:100510000846406848600846406840F4806048608B
:100520000846406820F47C1048600846406840F463
:10053000E81048600846006840F08070086000BF1E
:100540004548006800F000700028F9D04248406833
:1005500020F00300404948600846406840F002002F
:10056000486000BF3C48406800F00C000828F9D102
:100570000CBD10B5FFF792FF10BD10B536480068EE
:1005800040F001003449086008464068344908409A
:100590003149486008460068324908402E490860E1
:1005A0000846006820F4802008600846406820F46F
:1005B000FE0048604FF41F008860FFF7DAFF4FF03D
:1005C00000602949086010BD10B5002100200022FC
:1005D000214B5B6803F00C0121B1042906D00829E6
:1005E00028D107E0214B224C236027E01F4B204CF1
:1005F000236023E0184B5B6803F47010164B5B68B4
:1006000003F48032022303EB904022B9194B434399
:10061000174C23600DE0104B5B6803F4003323B1EB
:10062000144B4343124C236003E0104B4343104CE4
:10063000236003E00D4B0E4C236000BF00BF064B50
:100640005B68C3F303130C4CE15C094B1B68CB40A4
:10065000074C236010BD0000001002400020024043
:100660000000FFF8FFFFF6FE08ED00E000127A0040
:100670000000002000093D000400002010B56FF0CC
:10068000040000F046F9344800683449B0FBF1F04A
:10069000334908700846007800EB4001C1EBC010F8
:1006A0004FF6FF7101EAC0002E49088010BD0146D7
:1006B0002B4A12784A434FF0E0235A6100229A6194
:1006C0001A46126942F001021A6100BF4FF0E0229F
:1006D000106900F001021AB100F48032002AF5D04E
:1006E0004FF0E022126922F001024FF0E0231A617C
:1006F00000229A61704701461A4A12884A434FF015
:10070000E0235A6100229A611A46126942F00102FE
:100710001A6100BF4FF0E022106900F001021AB127
:1007200000F48032002AF5D04FF0E022126922F066
:1007300001024FF0E0231A6100229A61704730B540
:100740000446002505E04FF47A70FFF7D4FF681CDB
:1007500085B2A542F7DB30BD0000002000127A0010
:10076000140000201600002010B54FF4A06000F027
:1007700081F810BD014600BF704700BF2B4A1288A8
:1007800002F04002002AF9D0C2B2284B1B1D1A8089
:10079000704770B586B004460E461546012144F2F6
:1007A000050000F0F1FB4FF40070ADF814000320D9
:1007B0008DF8160018208DF8170005A91C4800F0C8
:1007C00027F94FF48060ADF8140004208DF817006D
:1007D00005A9174800F01CF925208DF800008DF8B8
:1007E00001608DF8025001208DF80300684600F08A
:1007F00046F801940020ADF80800ADF80A00ADF805
:100800000C00ADF810000C20ADF80E0001A907484F
:1008100000F061FC012240F22551044800F0F3FC95
:100820000121024800F0E3FC06B070BD0038014031
:10083000000801400948804709480047FEE7FEE7F5
:10084000FEE7FEE7FEE7FEE7FEE7FEE7FEE7FEE780
:1008500004480549054A064B704700007B0500081F
:10086000ED000008681000206816002068120020C3
:100870006812002031490143314A1160704770B558
:10088000002100230F22C47804B32D4C246804F403
:10089000E064C4F5E064210AC1F10403CA4044786D
:1008A00004FA03F18478144021430901254C0678A9
:1008B000A155047804F01F050124AC4005786D11A2
:1008C000AD0005F1E025C5F8004109E0047804F029
:1008D0001F050124AC401C4D0678761145F82640D2
:1008E00070BD1A4A0A400243154B1B1F1A6070471D
:1008F00039B1134A121D12680243114B1B1D1A60B5
:1009000006E00F4A121D126882430D4B1B1D1A6030
:100910007047042808D14FF0E021096941F0040133
:100920004FF0E022116107E04FF0E021096921F06A
:1009300004014FF0E0221161704700000000FA0549
:100940000CED00E000E400E080E100E080FFFF1F2C
:1009500010B50446CC48844208D10121042000F09F
:100960002DFB0021042000F029FB46E0C74884420B
:1009700008D10121082000F021FB0021082000F00F
:100980001DFB3AE0C248844208D10121102000F04A
:1009900015FB0021102000F011FB2EE0BD48844221
:1009A00008D10121202000F009FB0021202000F0C7
:1009B00005FB22E0B848844208D10121402000F024
:1009C000FDFA0021402000F0F9FA16E0B348844215
:1009D00008D10121802000F0F1FA0021802000F0F0
:1009E000EDFA0AE0AE48844207D10121801500F0FB
:1009F000E5FA0021A01500F0E1FA10BD10B50121C3
:100A0000084600F0DBFA0021012000F0D7FA10BD03
:100A10002DE9F04102460025002600200023002495
:100A2000002791F803C00CF00F0591F803C00CF0FB
:100A3000100CBCF1000F03D091F802C04CEA050580
:100A400091F800C0BCF1000F31D0146800202BE0F9
:100A50004FF0010C0CFA00F3B1F800C00CEA0306E9
:100A60009E4220D183004FF00F0C0CFA03F7BC43D9
:100A700005FA03FC4CEA040491F803C0BCF1280F0A
:100A800006D14FF0010C0CFA00FCC2F814C00AE0C9
:100A900091F803C0BCF1480F05D14FF0010C0CFADE
:100AA00000FCC2F810C0401C0828D1D31460B1F873
:100AB00000C0BCF1FF0F34DD546800202EE000F1CF
:100AC000080C4FF0010808FA0CF3B1F800C00CEA6A
:100AD00003069E4221D183004FF00F0C0CFA03F75E
:100AE000BC4305FA03FC4CEA040491F803C0BCF1D2
:100AF000280F05D100F1080C08FA0CF8C2F8148090
:100B000091F803C0BCF1480F07D100F1080C4FF079
:100B1000010808FA0CF8C2F81080401C0828CED34F
:100B20005460BDE8F0814FF6FF71018002218170B1
:100B30000421C17070470246002093680B400BB13E
:100B4000012000E0002070470146886880B27047AD
:100B500002460020D3680B400BB1012000E00020CA
:100B600070470146C86880B27047016170474161B3
:100B700070470AB1016100E041617047C160704790
:100B80004FF480320A4382618161826182698269A5
:100B9000704702460020434B18684FF68073184098
:100BA00040EA021008433F4B186070473E49C86155
:100BB0007047F0B50A46002300240021002500F00C
:100BC0000046B6F1004F02D1364EF16901E0354ED4
:100BD0007168C0F3034583B200F44016B6F5401FB8
:100BE00008D121F070612F4E766826F070662D4F87
:100BF0007E6012E000F48016B6F5801F06D1032651
:100C000006FA05F4A14341F0706106E0460D360195
:100C100003FA06F6B14341F0706122B1460D360188
:100C200003FA06F6314300F00046B6F1004F02D158
:100C30001C4EF16101E01B4E7160F0BD30B5002229
:100C40008B071C0F0F2303FA04F2164B08338C108A
:100C500053F824309343134C08348D1044F8253056
:100C600023468C1053F824308C07240F00FA04F428
:100C700023430C4C08348D1044F8253030BD0A490C
:100C8000DC3108607047000000080140000C0140A2
:100C9000001001400014014000180140001C0140F8
:100CA000002001400000014000002042DF480068B1
:100CB00040F00100DD49086008464068DC49084012
:100CC000DA49486008460068DA490840D7490860B0
:100CD0000846006820F4802008600846406820F438
:100CE000FE0048604FF41F0088607047CF490968D4
:100CF00021F48031CD4A11601146096821F4802128
:100D00001160B0F5803F03D0B0F5802F0ED106E022
:100D1000C649096841F48031C44A116007E0C349FB
:100D2000096841F4A021C14A116000E000BF00BF82
:100D3000704710B501460022002300204A11012A05
:100D400002D1BA4C236806E0022A02D1B74C236ACA
:100D500001E0B64C636A01F01F02012494401C407C
:100D60000CB1012000E0002010BD38B5002000903B
:100D70000024002500BF3120FFF7DBFF0546009867
:100D8000401C00900098B0F5A06F01D0002DF2D06B
:100D90003120FFF7CEFF08B1012400E000242046F7
:100DA00038BD01460020A14A106820F0F80040EA52
:100DB000C10010607047A0490860704702460020DB
:100DC0009A4B586820F47C1042EA01031843974B71
:100DD0005860704798490866704701460020934A5A
:100DE000506820F003000843506070478F48406807
:100DF00000F00C007047014600208C4A506820F03B
:100E0000F00008435060704701460020874A506850
:100E100020F4E06008435060704701460020834A98
:100E2000506820F4605040EAC1005060704729B11A
:100E30007E4A527A02437D4B5A7204E07B4A527AD0
:100E400082437A4B5A7270477B49D83108607047A9
:100E500001460020754A506820F440400843506025
:100E600070470021714A20321170704A82F82010B8
:100E7000012802D004280AD104E001216B4A203263
:100E8000117005E00521694A2032117000E000BFB1
:100E900000BF70476949086070476449096A0143A7
:100EA000624A11627047654944390860704730B53D
:100EB00000210022002400235C4D6D6805F00C0128
:100EC00021B1042905D0082923D105E05C4D056036
:100ED00022E05B4D05601FE0544D6D6805F4701213
:100EE000524D6D6805F48034022505EB92421CB921
:100EF000544D554305600BE04C4D6D6805F40035CD
:100F00001DB1504D5543056002E04D4D5543056000
:100F100002E04B4D056000BF00BF444D6D6805F019
:100F2000F0010909484D6B5C0568DD4045603F4DA7
:100F30006D6805F4E061090A434D6B5C4568DD406E
:100F400085603A4D6D6805F46051C90A3E4D6B5C91
:100F50004568DD40C560354D6D6805F44041890B3D
:100F60003A4D6B5CC568B5FBF3F5056130BD29B141
:100F70002E4A526902432D4B5A6104E02B4A5269B2
:100F800082432A4B5A61704729B1284A9269024329
:100F9000264B9A6104E0254A92698243234B9A6169
:100FA000704729B1214AD2690243204BDA6104E03B
:100FB0001E4AD26982431D4BDA61704729B11B4A30
:100FC000D2680243194BDA6004E0184AD2688243BF
:100FD000164BDA60704729B1144A12690243134B69
:100FE0001A6104E0114A12698243104B1A6170477A
:100FF00012494039086070470F49C86470470B496F
:10100000C87170470948406A40F0807007494862DB
:10101000704701460020054A92680A400AB1012043
:1010200000E00020704701498872704700100240BC
:101030000000FFF8FFFFF6FE00004242800442423B
:1010400000127A0000093D001C0000202C00002046
:1010500010B50446FB48844209D101218803FFF7FB
:10106000ADFF00214FF48040FFF7A8FF32E0F648C3
:10107000844209D101214804FFF7ADFF00214FF45C
:101080000030FFF7A8FF25E0F048844209D1012194
:101090008804FFF7A0FF00214FF48020FFF79BFF9B
:1010A00018E0EB48844209D10121C804FFF793FFFF
:1010B00000214FF40020FFF78EFF0BE0E54884424B
:1010C00008D101210805FFF786FF00214FF48010A9
:1010D000FFF781FF10BD2DE9F04786B005460E46AB
:1010E0000024A24600BFA1460027B08900B100BF7E
:1010F0002F462C8A4CF6FF700440F08804432C8263
:10110000AC894EF6F3100440B088318908437189E8
:1011100008430443AC81AC8A4FF6FF400440B089D9
:101120000443AC8201A8FFF7C2FEC648874202D141
:10113000DDF810A001E0DDF80CA0A88900F4004063
:1011400040B10AEBCA0000EB0A1031684900B0FB5D
:10115000F1F807E00AEBCA0000EB0A1031688900D9
:10116000B0FBF1F86420B8FBF0F004012009642121
:1011700001FB1089A88900F4004040B1322000EB47
:10118000C900B0FBF1F000F00700044308E0322092
:1011900000EB09106421B0FBF1F000F00F000443F4
:1011A0002C8106B0BDE8F0874FF416510160002194
:1011B0008180C18001810C214181002181817047A2
:1011C00010B502460020108A4FF2FF0318400B882A
:1011D0004C8823438C882343CC88234318431082B4
:1011E00010BD0021018041808180C180704721B104
:1011F000828942F40052828104E082894DF6FF73B5
:101200001A4082817047F0B503460024002600256D
:10121000002040F66A17B94200D100BF1846C1F35A
:10122000421401F01F06012707FA06F5012C01D12F
:101230000C3004E0022C01D1103000E014301AB15F
:1012400007682F43076002E00768AF430760F0BDFF
:101250001AB1838A0B43838202E0838A8B438382A1
:101260007047028A4FF6F0731A400282028A0A43DC
:101270000282704782894FF2FF731A40828182890D
:101280000A438281704721B1828942F00202828141
:1012900004E082894FF6FD731A4082817047028A0A
:1012A0004FF6DF731A400282028A0A4302827047B5
:1012B00021B1028A42F48042028204E0028A4BF6A3
:1012C000FF731A4002827047C1F3080282807047A0
:1012D00001468888C0F308007047818941F0010108
:1012E00081817047028BD2B20283028B42EA0122D3
:1012F00002837047028B02F47F420283028B0A430F
:101300000283704721B1828A42F02002828204E087
:10131000828A4FF6DF731A408282704721B1828A37
:1013200042F01002828204E0828A4FF6EF731A4084
:101330008282704721B1828A42F00802828204E0F0
:10134000828A4FF6F7731A408282704721B18289F0
:1013500042F40042828103E08289C2F30E0282815C
:10136000704721B1828A42F40062828204E0828A5C
:101370004FF2FF731A4082827047828A4FF6FB73E6
:101380001A408282828A0A438282704721B1828A0D
:1013900042F00202828204E0828A4FF6FD731A4014
:1013A0008282704702460020B1F5007F00D100BF65
:1013B00013880B400BB1012000E00020704701F4BE
:1013C0000072B2F5007F00D100BFCA4302807047AF
:1013D00070B50246002400230025002040F66A165E
:1013E000B14200D100BFC1F3421501F01F03012635
:1013F00006FA03F3012D02D19689334006E0022D4F
:1014000002D1168A334001E0968A33400C1201263D
:1014100006FA04F41688344013B10CB1012000E040
:10142000002070BD10B50022002340F66A14A142CE
:1014300000D100BF0A1201249440A3B2DC4304800F
:1014400010BD00000038014000440040004800404A
:10145000004C00400050004008B501210C20FFF76F
:1014600093FD4FF43040ADF8000010208DF80300DC
:1014700003208DF802006946FE48FFF7C9FA4FF4D1
:101480001060ADF8000010208DF8030003208DF8E7
:1014900002006946F848FFF7BBFA4FF48050ADF8F8
:1014A000000048208DF8030003208DF802006946F3
:1014B000F148FFF7ADFA4FF48070ADF8000010204E
:1014C0008DF8030003208DF802006946E948FFF714
:1014D0009FFA0020E949086008BD002117E00022BA
:1014E000E64B14331A6000F0800222B10122E34B74
:1014F0001C331A6003E00022E04B1C331A604206E2
:10150000100E0122DD4B14331A604A1CD1B2082997
:10151000E5DB704710B504460020D849103108605B
:10152000D749C1F8A0012046FFF7D7FF0120D349D2
:101530001031086010BD10B504460020CF491031AD
:1015400008600120CE49C1F8A0012046FFF7C5FF81
:101550000120CA491031086010BD06E042F6E06182
:1015600000BF0A1EA1F10101FBD1021EA0F1010082
:10157000F4D1704700B506E00A20FFF7EEFFC1483E
:10158000006800B900E0F7E700BF00BD10B50146F4
:101590000023BA4C14342360002217E001F08003CA
:1015A00023B10123B54C1C34236003E00023B34C6A
:1015B0001C3423600123B14C143423600023B24C4B
:1015C000C4F8B4314B06190E531CDAB2082AE5DB15
:1015D00010BD10B504460120A84910310860002054
:1015E000A949C1F8B001A749703108602046FFF74A
:1015F000CDFF0120A449C1F8B00110BD10B50446CB
:1016000001209E491031086000209F49C1F8B001B7
:1016100001209C49703108602046FFF7B7FF012088
:101620009949C1F8B00110BD00B52220FFF7D1FFE4
:10163000F720FFF7E3FF2020FFF7CBFFFFF79AFF2C
:1016400000BD2DE9F041064610274FF0FA0824208E
:10165000FFF760FF00250AE0002405E005FB0741D5
:10166000705CFFF768FF641CBC42F7D36D1C4545F6
:10167000F2D3FFF7D9FFBDE8F08100B50020814922
:101680007C3108600A20FFF768FF01207C49C1F81F
:10169000AC010A20FFF761FFFFF76CFF1220FFF794
:1016A00098FFFFF767FF0120FFF793FF0A20FFF77E
:1016B00054FFF920FFF7A2FF0A20FFF74EFF00209A
:1016C000FFF79CFF0A20FFF748FF0020FFF796FF77
:1016D0001120FFF77EFF0220FFF790FF4420FFF765
:1016E00078FF0F20FFF78AFF0020FFF787FF4520D4
:1016F000FFF76FFF0020FFF781FF0020FFF77EFF5D
:10170000F920FFF77BFF0020FFF778FF3C20FFF771
:1017100060FF0520FFF772FF2120FFF75AFF00202E
:10172000FFF76CFF8020FFF769FF1820FFF751FFDC
:101730008020FFF763FF4E20FFF74BFF0F20FFF7DE
:101740005DFF4F20FFF745FF0020FFF757FF002008
:10175000FFF754FFFFF70EFF00BD00B50020494919
:101760007C3108600A20FFF7F8FE01204449C1F8E7
:10177000AC010A20FFF7F1FE1220FFF72AFFFFF766
:10178000F9FE0120FFF725FF2720FFF737FF012093
:10179000FFF734FF0020FFF731FF1120FFF719FF9B
:1017A0000220FFF72BFF4420FFF713FF0F20FFF766
:1017B00025FF0020FFF722FF4520FFF70AFF00204A
:1017C000FFF71CFF0020FFF719FFF920FFF716FFB6
:1017D0000020FFF713FF1820FFF7FBFE8020FFF724
:1017E0000DFF2220FFF7F5FEB120FFF707FF2020B5
:1017F000FFF7EFFEFFF7BEFE1A20FFF7EAFE6420B8
:10180000FFF7FCFE0020FFF7F9FE2220FFF7E1FEC4
:101810009120FFF7F3FE2020FFF7DBFEFFF7AAFE83
:1018200000BD00B5002017497C3108600A20FFF791
:1018300094FE01201249C1F8AC010A20FFF78DFE89
:10184000FFF798FE1220FFF7C4FEFFF793FE01207A
:10185000FFF7BFFE0A20FFF780FEF920FFF7CEFE5C
:101860000A20FFF77AFE0020FFF7C8FE0A20FFF7E4
:1018700074FE0BE0000C014000080140A0812142F1
:101880000000214230012142008021420020FFF768
:10189000B5FE1120FFF79DFE0320FFF7AFFE4420A9
:1018A000FFF797FE0020FFF7A9FE0F20FFF7A6FE27
:1018B0004520FFF78EFE0020FFF7A0FE0020FFF777
:1018C0009DFEF920FFF79AFE0020FFF797FE3C20CF
:1018D000FFF77FFE0520FFF791FE1820FFF779FE46
:1018E0008020FFF78BFE4E20FFF773FE0020FFF7EE
:1018F00085FE4F20FFF76DFE0020FFF77FFE0020E2
:10190000FFF77CFEFFF736FE00BD00B52220FFF793
:1019100060FEC720FFF772FE2020FFF75AFEFFF798
:1019200029FE00BD00B52220FFF753FEFF20FFF780
:1019300065FE2020FFF74DFEFFF71CFE00BDF0B551
:1019400006462420FFF745FE102700251CE0002452
:1019500017E044B905FB0741715CFC2242EAA11083
:10196000FFF74CFE0CE005FB0741491E715C890046
:1019700005FB0742B25C41EAA211C8B2FFF73EFE86
:10198000641CBC42E5D36D1CFA2DE0D3FFF74CFE7E
:10199000F0BDF0B506462420FFF71BFE10270025FA
:1019A0001CE0002417E044B905FB0741715CFC22F0
:1019B00042EAA110FFF722FE0CE005FB0741491E99
:1019C000715C890005FB0742B25C41EAA211C8B212
:1019D000FFF714FE641CBC42E5D36D1CFA2DE0D366
:1019E000FFF793FFF0BDF0B507462420FFF7F1FDA8
:1019F000102600251CE0002417E044B905FB064131
:101A0000795CFC2242EAA110FFF7F8FD0CE005FB2F
:101A10000641491E795C890005FB0642BA5C41EA31
:101A2000A211C8B2FFF7EAFD641CB442E5D36D1CF5
:101A3000FA2DE0D32620FFF7CCFD00251CE0002482
:101A400017E044B905FB0641795CFC2242EAA1108B
:101A5000FFF7D4FD0CE005FB0641491E795C8900C7
:101A600005FB0642BA5C41EAA211C8B2FFF7C6FD07
:101A7000641CB442E5D36D1CFA2DE0D3FFF7D4FD0E
:101A8000F0BD2DE9FE4F04460F4690469946DDF81D
:101A900030B0E40804EBDB00401EC0F10F00029000
:101AA000C4F10F04002001903D46FF2F02D9280AFF
:101AB0000190EDB20020009007EB0900461EFF2EBA
:101AC00002D9300A0090F6B20020FE4908600A20D0
:101AD000FFF743FD0120FC49C1F8AC010A20FFF7E4
:101AE0003CFD3C20FFF775FD8020FFF787FD44207B
:101AF000FFF76FFDE0B2FFF781FD0299C8B2FFF773
:101B00007DFD4520FFF765FDC5F1F901C8B2FFF77E
:101B100075FD0199C1F1F901C8B2FFF76FFDC6F17A
:101B2000F901C8B2FFF76AFD0099C1F1F901C8B225
:101B3000FFF764FD4E20FFF74CFDE0B2FFF75EFDBE
:101B40004F20FFF746FDE8B2FFF758FD0199C8B2F4
:101B5000FFF754FD2420FFF73CFD4FF0000A07E09B
:101B600098F80000FFF74AFD08F101080AF1010AA0
:101B700009FB0BF0BAEBD00FF2D3FFF7D3FEBDE8B1
:101B8000FE8F00B51020FFF724FD0120FFF736FD82
:101B90006420FFF7E2FC00BD30B52420FFF719FDFB
:101BA000002408E0002503E0FF20FFF727FD6D1C5F
:101BB000102DF9D3641CFA2CF4D3FFF735FD30BD9A
:101BC0002DE9FF4F82B082469B46DDE91A784FEA45
:101BD000DA0A0AEBD800401EC0F10F000190CAF1EA
:101BE0000F0A4FF000090398451E0398FF2802D9F9
:101BF0004FEA1529EDB20020009003983844441EA6
:101C0000FF2C02D9200A0090E4B20020AD49086000
:101C10000A20FFF7A2FC0120AB49C1F8AC010A2061
:101C2000FFF79BFC3C20FFF7D4FC8020FFF7E6FC8D
:101C30004420FFF7CEFC0AF0FF00FFF7DFFC01991C
:101C4000C8B2FFF7DBFC4520FFF7C3FCC5F1F90183
:101C5000C8B2FFF7D3FCC9F1F901C8B2FFF7CEFC57
:101C6000C4F1F901C8B2FFF7C9FC0099C1F1F9014B
:101C7000C8B2FFF7C3FC4E20FFF7ABFC0AF0FF0031
:101C8000FFF7BCFC4F20FFF7A4FCE8B2FFF7B6FC5F
:101C900009F0FF00FFF7B2FC2420FFF79AFC0026B2
:101CA00007E004990878FFF7A9FC0498401C049009
:101CB000761C07FB08F0B6EBD00FF2D34FEADB0B34
:101CC0000BEBD800401EC0F10F000190CBF10F0BC1
:101CD0004FF000090F98451E0F98FF2802D94FEAD0
:101CE0001529EDB2002000900F983844441EFF2CB7
:101CF00002D9200A0090E4B24420FFF76AFC0BF0FE
:101D0000FF00FFF77BFC0199C8B2FFF777FC452085
:101D1000FFF75FFCC5F1F901C8B2FFF76FFCC9F12D
:101D2000F901C8B2FFF76AFCC4F1F901C8B2FFF7C4
:101D300065FC0099C1F1F901C8B2FFF75FFC4E20C4
:101D4000FFF747FC0BF0FF00FFF758FC4F20FFF7B1
:101D500040FCE8B2FFF752FC09F0FF00FFF74EFC31
:101D60002420FFF736FC002607E010990878FFF7DB
:101D700045FC1098401C1090761C07FB08F0B6EB51
:101D8000D00FF2D31198C0081190119800EBD80031
:101D9000401EC0F10F0001901198C0F10F0011908A
:101DA0004FF000091298451E1298FF2802D94FEAF9
:101DB0001529EDB20020009012983844441EFF2CE3
:101DC00002D9200A0090E4B24420FFF702FC1199E6
:101DD000C8B2FFF713FC0199C8B2FFF70FFC45200A
:101DE000FFF7F7FBC5F1F901C8B2FFF707FCC9F12E
:101DF000F901C8B2FFF702FCC4F1F901C8B2FFF75C
:101E0000FDFB0099C1F1F901C8B2FFF7F7FB4E20C5
:101E1000FFF7DFFB1199C8B2FFF7F0FB4F20FFF788
:101E2000D8FBE8B2FFF7EAFB09F0FF00FFF7E6FB9B
:101E30002420FFF7CEFB002607E013990878FFF770
:101E4000DDFB1398401C1390761C07FB08F0B6EBE3
:101E5000D00FF2D31498C0081490149800EBD80057
:101E6000401EC0F10F0001901498C0F10F001490B3
:101E70004FF000091598451E1598FF2802D94FEA22
:101E80001529EDB20020009015983844441EFF2C0F
:101E900002D9200A0090E4B24420FFF79AFB14997B
:101EA000C8B2FFF7ABFB0199C8B2FFF7A7FB45200B
:101EB000FFF78FFBC5F1F901C8B2FFF79FFBC9F12E
:101EC000F90103E0AC01214200002142C8B2FFF752
:101ED00095FBC4F1F901C8B2FFF790FB0099C1F17D
:101EE000F901C8B2FFF78AFB4E20FFF772FB149985
:101EF000C8B2FFF783FB4F20FFF76BFBE8B2FFF799
:101F00007DFB09F0FF00FFF779FB2420FFF761FB61
:101F1000002607E016990878FFF770FB1698401C1A
:101F20001690761C07FB08F0B6EBD00FF2D317988B
:101F3000C0081790179800EBD800401EC0F10F00A2
:101F400001901798C0F10F0017904FF000091898F2
:101F5000451E1898FF2802D94FEA1529EDB2002036
:101F6000009018983844441EFF2C02D9200A009093
:101F7000E4B24420FFF72DFB1799C8B2FFF73EFBF0
:101F80000199C8B2FFF73AFB4520FFF722FBC5F1E4
:101F9000F901C8B2FFF732FBC9F1F901C8B2FFF786
:101FA0002DFBC4F1F901C8B2FFF728FB0099C1F17C
:101FB000F901C8B2FFF722FB4E20FFF70AFB179981
:101FC000C8B2FFF71BFB4F20FFF703FBE8B2FFF798
:101FD00015FB09F0FF00FFF711FB2420FFF7F9FACA
:101FE000002607E019990878FFF708FB1998401CAC
:101FF0001990761C07FB08F0B6EBD00FF2D3FFF771
:1020000091FC06B0BDE8F08F2DE9F0410646069F31
:102010000020FE4C206020460660018142818781BD
:102020000C464FEAE17C01EB5C7C4FEAEC0CA1EB47
:10203000CC0CBCF1000F07D10D464FEAE57C05EB57
:102040005C7C4FEAEC0C08E008464FEAE17C01EBCF
:102050005C7C4FEAEC0C0CF1010CDFF8B083A8F8C3
:1020600012C040468282C3810120444620820BB1C7
:10207000B42B03D1E5488180C28002E0E34882802E
:10208000C180BDE8F081E1490860704730B15A284D
:1020900004D0B42802D0B0F5877F01D1DB49C881D4
:1020A000704728B1012803D0022801D0032801D1AC
:1020B000D649088270472DE9F04103460C46174681
:1020C000D24EB6889E4203DBD04EF688A64201DA95
:1020D000BDE8F081CD4EF6893EB15A2E08D0B42E1F
:1020E0000DD0B6F5877F1CD114E01846214619E0C3
:1020F000C64E3689361B761EB0B2194612E0C34E64
:102100003689F61A761EB0B2C04E7689361B761E18
:10211000B1B207E02046BD4E7689F61A761EB1B2FE
:1021200000E0D5E700BFB94E368A36B1012E05D0A2
:10213000022E09D0032E18D10CE017E0B34E3689D9
:10214000361A761EB0B211E0B04E7689761A761E37
:10215000B1B20BE0AD4E3689361A761EB0B2AB4E38
:102160007689761A761EB1B200E0B1E700BFA74EBD
:102170003689864203DBA54E76898E4200DAA7E7D0
:1021800006464FEAE07C00EB5C7C4FEAEC0CDFF8A3
:102190007C82B8F8128001FB08C29C4E3668B55CA0
:1021A000AFB906464FEAE07C00EB5C7C4FEAEC0CF2
:1021B000A0EBCC084FF0800C4CFA08FC25EA0C0C84
:1021C000DFF84882D8F8008008F802C014E006461C
:1021D0004FEAE07C00EB5C7C4FEAEC0CA0EBCC0817
:1021E0004FF0800C4CFA08FC4CEA050CDFF81C821E
:1021F000D8F8008008F802C000BF69E730B5024691
:10220000002110E0002008E0804C648A01FB0403F8
:102210007E4D2D68EA54441CA0B27C4C648A8442F2
:10222000F2DC4C1CA1B2794CA48A8C42EADC30BDB1
:102230002DE9F04706460F4690469946DDF820A066
:102240003D460CE0344606E0524629462046FFF75C
:1022500032FF601C84B24445F6DB681C85B24D45F4
:10226000F0DBBDE8F0872DE9F04707468846914648
:102270001C46DDF820A065488088B84203DB63482F
:10228000C088404501DABDE8F087BAF1010F23D1DB
:1022900000251CE0002613E07819001B03D408EB8E
:1022A0000600001B00D50FE008EB0602121B91B2DE
:1022B0007A19121B90B24A46FFF7FDFE701C06B257
:1022C0006000401EB042E7DC00BF681C05B2600041
:1022D000401EA842DEDC15E0002511E000260BE0E0
:1022E00008EB0602521E91B27A19521E90B24A466B
:1022F000FFF7E1FE701C06B2A642F1DB681C05B2D6
:10230000A542EBDB00BFBEE72DE9F04F86B00446E7
:102310000D4616461F46A0460595301B01D4301BBE
:1023200000E0A01B0490781B01D4781B00E0E81BA0
:1023300082460498A0EB0A09B44202DD4FF0FF3058
:1023400000E001200290BD4202DD4FF0FF3000E0CE
:10235000012001904FF0000B00BF0BF1010B119811
:1023600001280ED103209BFBF0F100FB11B040B916
:10237000012000904046DDE90F230599FFF773FF28
:1023800009E0119838B9012000904046DDE90F239B
:102390000599FFF768FFB04503D10598B84200D111
:1023A00019E04FEA49000390CAF1000103988842FE
:1023B00005DBA9EB0A09029840441FFA80F8DDE921
:1023C00003018842C9DC04988144019905980844B6
:1023D00080B20590C1E700BF06B0BDE8F08F2DE9DF
:1023E000FE4F81460F4692469846DDE90DB50C9C9E
:1023F0000648808848450EDB0448C088B8420ADB9E
:1024000002488088504506DB004801E0F00F0020BC
:10241000C088404501DABDE8FE8FBBF1010F10D145
:102420003E460BE00020334652463146CDE900459A
:1024300002904846FFF768FF701C86B24645F1DB04
:1024400027E000203B4652463946CDE90045029040
:102450004846FFF759FF002043464A463946CDE932
:10246000004502904846FFF74FFF00204346524682
:102470003946CDE9004502905046FFF745FF002060
:10248000434652464146CDE9004502904846FFF793
:102490003BFF00BFBFE72DE9F84F05460E469146CA
:1024A0009B4600244F46C9F1010AFE488088A84295
:1024B00003DBFC48C088B04204DAFBA000F0CCFA91
:1024C000BDE8F88FC5E00A98002850D10120F21924
:1024D00091B22A19009090B25A460B9BFFF7C3FEA7
:1024E0000120321991B2EA19009090B25A460B9B22
:1024F000FFF7B9FE0120F21991B22A1B009090B2A9
:102500005A460B9BFFF7AFFE0120321991B2EA1B2E
:10251000009090B25A460B9BFFF7A5FE0120F21BDC
:1025200091B22A1B009090B25A460B9BFFF79BFE7C
:102530000120321B91B2EA1B009090B25A460B9BCD
:10254000FFF791FE0120F21B91B22A19009090B280
:102550005A460B9BFFF787FE0120321B91B2EA1906
:10256000009090B25A460B9BFFF77DFE62E00A98FE
:1025700001285FD1A0465BE0012006EB080291B282
:102580002A19009090B25A460B9BFFF76CFE01206F
:10259000321991B205EB0802009090B25A460B9B9B
:1025A000FFF761FE012006EB080291B22A1B0090A2
:1025B00090B25A460B9BFFF756FE0120321991B29A
:1025C000A5EB0802009090B25A460B9BFFF74BFE1A
:1025D0000120A6EB080291B22A1B009090B25A4645
:1025E0000B9BFFF740FE0120321B91B2A5EB0802C6
:1025F000009090B25A460B9BFFF735FE0120A6EBE8
:10260000080291B22A19009090B25A460B9BFFF72C
:102610002AFE0120321B91B205EB0802009090B215
:102620005A460B9BFFF71FFE08F101001FFA80F8C6
:10263000B845A1DDBAF1000F03DA6000C01C824486
:1026400005E0E01B4000401D8244781E87B2601CFC
:1026500084B2A7423FF737AF00BF31E72DE9FC4F07
:102660000746884692461D46DDF82CB08D48808886
:10267000B84203DB8B48C088404501DABDE8FC8FD7
:10268000A988CA1701EB5272D2100846CB1701EB8A
:102690005373DB10A1EBC3030BB1012300E0002354
:1026A0001A44EB885A4392B20092AAF12000009A91
:1026B000504301902968019801EB0009002651E080
:1026C000002440E0BBF1FF0F14D1E11704EB51717E
:1026D000C910A4EBC1028021114199F800201140DA
:1026E00029B308EB040291B2BA1990B20C9AFFF721
:1026F000E2FC1CE0E11704EB5171C910A4EBC1022C
:102700008021114199F80020114041B108EB0402E9
:1027100091B2BA1990B20C9AFFF7CDFC07E008EB22
:10272000040291B2BA1990B25A46FFF7C4FCE117FD
:1027300004EB5171C910A4EBC101072901D109F1C2
:102740000109601C84B2A888A042BBDCA888C1171C
:1027500000EB5171C910A0EBC10109B109F10109E8
:10276000701C86B2E888B042AADC00BF86E72DE97B
:10277000FC4F0746884615461C46DDE90BABB946BB
:10278000464620E0A088484446498988884203DDBF
:10279000B946E088304486B2E08830444149C9886F
:1027A000884204DD4646A08848441FFA80F9CDE9F6
:1027B00000AB15F8012B234631464846FFF74EFF84
:1027C000A088304486B228780028DBD1BDE8FC8F91
:1027D0002DE9F04FADF5037D06460F4615469946A7
:1027E000DDF834B2DDF830A20024A0464FF4807149
:1027F00043A800F03DF94FF4807103A800F038F9C8
:1028000043A8029027488088B04203DB2548C0884F
:10281000B84203DA0DF5037DBDE8F08F0CE00A2025
:1028200095FBF0F100FB1150303003A90855601CF6
:1028300004B20A2095FBF0F5002DF0D10BE0601EEC
:1028400003A9085C43A901F8080008F101000FFA88
:1028500080F8601E04B2002CF1DC4B46CDE900ABE1
:1028600039463046029AFFF782FF00BFD2E72DE9D2
:10287000FF4F85B0054690469A46DDE9126716A2DD
:1028800007CA02AC07C4BAF8044098F804000A2149
:1028900090FBF1F002A911F8009053464A46CDE9A9
:1028A00000671FE0F00F00204552523A63697263DF
:1028B0006C652063656E74657220706F696E74203C
:1028C0006F7574206F662073637265656E20617228
:1028D0006561210D0A00000030313233343536375E
:1028E0003839000028460699FFF7B8FE98F804002A
:1028F0000A2190FBF1F201FB120002A911F80090ED
:10290000291988B253464A46CDE900670699FFF770
:10291000A5FEA146E11704EB91712A1902EBA10172
:10292000A34604EBDB7201EB620188B253463A2204
:10293000CDE900670699FFF791FE98F805000A2196
:1029400090FBF1F002A911F800B004EBD97105EB8E
:10295000440202EB610188B253465A46CDE9006752
:102960000699FFF77BFE98F805000A2190FBF1F22B
:1029700001FB120002A911F800B004EBD97104EBBD
:1029800044022A4402EB610188B253465A46CDE91B
:1029900000670699FFF762FE04EBD97105EB84022C
:1029A00002EB6101A346E21704EB9272A1EBA201D4
:1029B00088B253463A22CDE900670699FFF74EFEEA
:1029C00098F806000A2190FBF1F002A911F8009096
:1029D00004EB8401294488B253464A46CDE9006796
:1029E0000699FFF73BFE98F806000A2190FBF1F2EA
:1029F00001FB120002A911F8009004EB440105EB61
:102A0000410188B253464A46CDE900670699FFF76F
:102A100025FE09B0BDE8F08F30B502460023002145
:102A200011E0002009E00A4C648A01FB0403D45C35
:102A3000074D2D68EC54441CA0B2054C648A8442B6
:102A4000F1DC4C1CA1B2024CA48A8C42E9DC30BD02
:102A5000F00F0020704700000FB4044910B503AA1E
:102A6000029800F031F810BC5DF814FB180000204B
:102A70004FF0000200B5134694469646203922BF17
:102A8000A0E80C50A0E80C50B1F12001BFF4F7AF62
:102A9000090728BFA0E80C5048BF0CC05DF804EB44
:102AA000890028BF40F8042B08BF704748BF20F8B2
:102AB000022B11F0804F18BF00F8012B70477047B0
:102AC0007047704770470000074B70B50D467B4458
:102AD00000F011F80446284600F020F810B14FF03D
:102AE000FF3070BD204670BDA9DCFFFF01694A1CA4
:102AF00002610878704700B58FB0CDE9013100213F
:102B0000059105497944CDE903101146684600F066
:102B10002EF80FB000BD0000E5FFFFFF007B00F0C6
:102B200080007047754600F03FF8AE4605006946E4
:102B3000534620F00700854618B020B5FDF788FE03
:102B4000BDE820404FF000064FF000074FF00008AE
:102B50004FF0000B21F00701AC46ACE8C009ACE82F
:102B6000C009ACE8C009ACE8C0098D4670472DE942
:102B7000F04106460024D6E90170F56880463046EB
:102B800003E04146B847641C3046A8470028F8D106
:102B90002046BDE8F08110B50446AFF30080204622
:102BA000BDE81040FDF7E9BA004870470810002062
:102BB000FFFFFFFFFFFFFFFFFFFFFFFFFFFFFFFF25
:102BC000FFFFFFFFFFFFFFFFFFFFFFFFFFFFFFFF15
:102BD000FFFFFFFFFFFFFFFFFFFFFFFFFFDFFFF72D
:102BE000FFDFFFF7FFDFFFF7FFDFFFE7FF800007F3
:102BF000FF000007FF000007FFFFFFE7FFFFFFF7F1
:102C0000FFFFFFF7FFFFFFF7FFFFFFFFFFFFFFFFE4
:102C1000FFFFFFFFFFFFFFFFFFFFFFFFFFFFFFFFC4
:102C2000FFFFFFFFFFFFFFFFFFFFFFFFFFFFFFFFB4
:102C3000FFFFFFFFFFFFFFFFFFFFFFFFFFFFFFFFA4
:102C4000FFFFFFFFFFFFFFFFFFFFFFFFFFFFFFFF94
:102C5000FFFFFFFFFFFFFFFFFFE1FFC7FFC1FF8790
:102C6000FF99FF27FF3FFE67FF7FFCE7FF7FF9E744
:102C7000FF7FF3E7FF7FE7E7FF3FCFE7FF1F1FE798
:102C8000FF803FC7FF807E07FFE0FE1FFFFFFFFFC3
:102C9000FFFFFFFFFFFFFFFFFFFFFFFFFFFFFFFF44
:102CA000FFFFFFFFFFFFFFFFFFFFFFFFFFFFFFFF34
:102CB000FFFFFFFFFFFFFFFFFFFFFFFFFFFFFFFF24
:102CC000FFFFFFFFFFFFFFFFFFFFFFFFFFFFFFFF14
:102CD000FFFFFFFFFFFFFFFFFFC3FE1FFF83FE0F8E
:102CE000FF83FE0FFF3FFFE7FF7FBFF7FF7FBFF7C9
:102CF000FF7FBFF7FF3F1FF7FF1E1FE7FF804FCF8C
:102D0000FF80C00FFFE1E01FFFFFF87FFFFFFFFF25
:102D1000FFFFFFFFFFFFFFFFFFFFFFFFFFFFFFFFC3
:102D2000FFFFFFFFFFFFFFFFFFFFFFFFFFFFFFFFB3
:102D3000FFFFFFFFFFFFFFFFFFFFFFFFFFFFFFFFA3
:102D4000FFFFFFFFFFFFFFFFFFFFFFFFFFFFFFFF93
:102D5000FFFFFFFFFFFFFDFFFFFFF1FFFFFFE1FFB1
:102D6000FFFF8DFFFFFE1DFFFFFC7DFBFFF0FDFB66
:102D7000FFE3FDFBFF800003FF000003FF000003F3
:102D8000FF000003FFFFFDFBFFFFFDFBFFFFFDFB5F
:102D9000FFFFFFFFFFFFFFFFFFFFFFFFFFFFFFFF43
:102DA000FFFFFFFFFFFFFFFFFFFFFFFFFFFFFFFF33
:102DB000FFFFFFFFFFFFFFFFFFFFFFFFFFFFFFFF23
:102DC000FFFFFFFFFFFFFFFFFFFFFFFFFFFFFFFF13
:102DD000FFFFFFFFFFFFFFFFFFFFFE1FFFF81E0FBC
:102DE000FF001E67FF073FF7FF3E7FF7FF3EFFF73D
:102DF000FF3EFFF7FF3EFFF7FF3E7FE7FF3E3F8FBF
:102E0000FF3F000FFF3F801FFF3FE07FFFFFFFFFFF
:102E1000FFFFFFFFFFFFFFFFFFFFFFFFFFFFFFFFC2
:102E2000FFFFFFFFFFFFFFFFFFFFFFFFFFFFFFFFB2
:102E3000FFFFFFFFFFFFFFFFFFFFFFFFFFFFFFFFA2
:102E4000FFFFFFFFFFFFFFFFFFFFFFFFFFFFFFFF92
:102E5000FFFFFFFFFFFFFFFFFFFE00FFFFF0003F50
:102E6000FFE0001FFFC38F0FFF9F9FC7FF3F3FE79C
:102E7000FF3F7FF7FF7F7FF7FF7F7FF7FF7F3FE712
:102E8000FF0F1FCFFF8F800FFFCFC01FFFFFE07F1F
:102E9000FFFFFFFFFFFFFFFFFFFFFFFFFFFFFFFF42
:102EA000FFFFFFFFFFFFFFFFFFFFFFFFFFFFFFFF32
:102EB000FFFFFFFFFFFFFFFFFFFFFFFFFFFFFFFF22
:102EC000FFFFFFFFFFFFFFFFFFFFFFFFFFFFFFFF12
:102ED000FFFFFFFFFFFFFFFFFFC3FFFFFF03FFFF3A
:102EE000FF0FFFFFFF1FFFFFFF3FFE07FF3FF00742
:102EF000FF3F8007FF3E0FFFFF387FFFFF21FFFFEF
:102F0000FF07FFFFFF1FFFFFFF3FFFFFFFFFFFFF69
:102F1000FFFFFFFFFFFFFFFFFFFFFFFFFFFFFFFFC1
:102F2000FFFFFFFFFFFFFFFFFFFFFFFFFFFFFFFFB1
:102F3000FFFFFFFFFFFFFFFFFFFFFFFFFFFFFFFFA1
:102F4000FFFFFFFFFFFFFFFFFFFFFFFFFFFFFFFF91
:102F5000FFFFFFFFFFFFF83FFFE1F01FFFC0E00FA3
:102F6000FF8047CFFF1C0FE7FF3E1FF7FF7F1FF7D4
:102F7000FF7F9FF7FF7F8FF7FF3F87E7FF1E03CF9E
:102F8000FF80600FFFC0F01FFFE1F83FFFFFFFFF72
:102F9000FFFFFFFFFFFFFFFFFFFFFFFFFFFFFFFF41
:102FA000FFFFFFFFFFFFFFFFFFFFFFFFFFFFFFFF31
:102FB000FFFFFFFFFFFFFFFFFFFFFFFFFFFFFFFF21
:102FC000FFFFFFFFFFFFFFFFFFFFFFFFFFFFFFFF11
:102FD000FFFFFFFFFFF03FFFFFC01F8FFF800F8F3E
:102FE000FF8FC787FF3FE7F7FF7FF7F7FF7FF7F711
:102FF000FF7FF7E7FF7FE7C7FF3FCF8FFF8F8C1F74
:10300000FFC0003FFFE0007FFFF803FFFFFFFFFF6F
:10301000FFFFFFFFFFFFFFFFFFFFFFFFFFFFFFFFC0
:10302000FFFFFFFFFFFFFFFFFFFFFFFFFFFFFFFFB0
:10303000FFFFFFFFFFFFFFFFFFFFFFFFFFFFFFFFA0
:10304000FFFFFFE003FFFFFFFFFFFC00001FFFFF8C
:10305000FFFFE0000003FFFFFFFF80000000FFFF15
:10306000FFFE000000003FFFFFFC000000001FFF0C
:10307000FFF8000000000FFFFFF003FFFFE007FF75
:10308000FFE03FFFFFFE03FFFFE0FFFFFFFF83FFC7
:10309000FFC1FFFFFFFFC1FFFFC7FFFFFFFFF1FF02
:1030A000FFC7FFFFFFFFF1FFFFCFFFFFFFFFF9FFAC
:1030B000FFCFFFFFFFFFF9FFFFC7FFFFFFFFF1FF9C
:1030C000FFC7FFFFFFFFF1FFFFC3FFFFFFFFE1FFB0
:1030D000FFE0FFFFFFFF83FFFFE03FFFFFFE03FF77
:1030E000FFF003FFFFC007FFFFF8000000000FFF25
:1030F000FFFC000000001FFFFFFE000000003FFF7C
:10310000FFFF80000000FFFFFFFFE0000003FFFF64
:10311000FFFFFE00003FFFFFFFFFFFFFFFFFFFFF7E
:10312000FFFFFFFFFFFFFFFFFFFFFFFFFFFFFFFFAF
:10313000FFFFFFFFFFFFFFFFFFFFFFFFFFFFFFFF9F
:10314000FFFFFFFFFFFFFFFFFFFFFFFFFFFFFFFF8F
:10315000FFFFFFFFFFFFFFFFFFFFFFFFFFFFFFFF7F
:10316000FFFCFFFFFFFFF3FFFFFCFFFFFFFFF3FF8D
:10317000FFFCFFFFFFFFF3FFFFFCFFFFFFFFF3FF7D
:10318000FFFCFFFFFFFFF3FFFFFCFFFFFFFFF3FF6D
:10319000FFF8FFFFFFFFE3FFFFF80000000003FF61
:1031A000FFF00000000003FFFFF00000000003FF3D
:1031B000FFC00000000003FFFFC00000000003FF8D
:1031C000FFC00000000003FFFFFFFFFFFFFFC3FF82
:1031D000FFFFFFFFFFFFE3FFFFFFFFFFFFFFF3FF27
:1031E000FFFFFFFFFFFFF3FFFFFFFFFFFFFFF3FF07
:1031F000FFFFFFFFFFFFF3FFFFFFFFFFFFFFF3FFF7
:10320000FFFFFFFFFFFFFFFFFFFFFFFFFFFFFFFFCE
:10321000FFFFFFFFFFFFFFFFFFFFFFFFFFFFFFFFBE
:10322000FFFFFFFFFFFFFFFFFFFFFFFFFFFFFFFFAE
:10323000FFFFFFFFFFFFFFFFFFFFFFFFFFFFFFFF9E
:10324000FFFFFFFFFFFFE3FFFFFFC1FFFFFF83FF64
:10325000FFFF00FFFFFE03FFFFFC007FFFFC03FFFB
:10326000FFF8007FFFF803FFFFF0007FFFF043FF50
:10327000FFF0007FFFE1C3FFFFE1F07FFF83C3FFAB
:10328000FFE3FFFFFF07C3FFFFE7FFFFFE0FC3FFE3
:10329000FFC7FFFFFC1FC3FFFFCFFFFFF83FC3FFC8
:1032A000FFCFFFFFF07FC3FFFFCFFFFFE0FFC3FFB4
:1032B000FFCFFFFFC1FFC3FFFFCFFFFF83FFC3FFB0
:1032C000FFC7FFFF07FFC3FFFFC7FFFC0FFFC3FFE1
:1032D000FFC3FFF01FFFC3FFFFE0FFC03FFFC3FFBF
:1032E000FFE000007FFF83FFFFF00000FFFF83FF90
:1032F000FFF00001FFFE03FFFFF80007FFF003FFF0
:10330000FFFC000FFFE003FFFFFF007FFFE00FFF68
:10331000FFFFFFFFFFE7FFFFFFFFFFFFFFFFFFFFD5
:10332000FFFFFFFFFFFFFFFFFFFFFFFFFFFFFFFFAD
:10333000FFFFFFFFFFFFFFFFFFFFFFFFFFFFFFFF9D
:10334000FFFFFFFFFFFFFFFFFFFFFFFFFFF87FFF14
:10335000FFFE07FFFFF01FFFFFFC03FFFFE00FFF73
:10336000FFF803FFFFE007FFFFF003FFFFE007FFA9
:10337000FFE003FFFFE003FFFFE3C3FFFFF0E3FF16
:10338000FFE7FFFFFFFFF1FFFFC7FFFCFFFFF1FFBC
:10339000FFCFFFFCFFFFF9FFFFCFFFFCFFFFF9FFAF
:1033A000FFCFFFFCFFFFF9FFFFCFFFFCFFFFF9FF9F
:1033B000FFCFFFF87FFFF9FFFFC7FFF87FFFF1FFA7
:1033C000FFC3FFF07FFFF1FFFFC1FFE23FFFE1FF1F
:1033D000FFE07F821FFFC3FFFFE000030FFF83FFBB
:1033E000FFF0000701FC07FFFFF8000F800007FF58
:1033F000FFFC001F80000FFFFFFE003FC0001FFF0B
:10340000FFFF80FFF0003FFFFFFFFFFFF800FFFF1F
:10341000FFFFFFFFFF07FFFFFFFFFFFFFFFFFFFFB4
:10342000FFFFFFFFFFFFFFFFFFFFFFFFFFFFFFFFAC
:10343000FFFFFFFFFFFFFFFFFFFFFFFFFF7FFFFF1C
:10344000FFFFFFFFFC7FFFFFFFFFFFFFF87FFFFF96
:10345000FFFFFFFFE07FFFFFFFFFFFFF807FFFFF1A
:10346000FFFFFFFF027FFFFFFFFFFFFC0E7FFFFF5D
:10347000FFFFFFF83E7FFFFFFFFFFFE07E7FFFFFC4
:10348000FFFFFF81FE7FFFFFFFFFFF03FE7FFFFFC8
:10349000FFFFFC0FFE7FF3FFFFFFF83FFE7FF3FF10
:1034A000FFFFE07FFE7FF3FFFFFFC1FFFE7FF3FF23
:1034B000FFFF03FFFE7FF3FFFFFC0FFFFE7FF3FF25
:1034C000FFF80000000003FFFFE00000000003FF22
:1034D000FFE00000000003FFFFE00000000003FF2A
:1034E000FFE00000000003FFFFE00000000003FF1A
:1034F000FFFFFFFFFE7FF3FFFFFFFFFFFE7FF3FFF6
:10350000FFFFFFFFFE7FF3FFFFFFFFFFFE7FF3FFE5
:10351000FFFFFFFFFE7FF3FFFFFFFFFFFE7FF3FFD5
:10352000FFFFFFFFFE7FFFFFFFFFFFFFFFFFFFFF2C
:10353000FFFFFFFFFFFFFFFFFFFFFFFFFFFFFFFF9B
:10354000FFFFFFFFFFFFFFFFFFFFFFFFFFF07FFF1A
:10355000FFFFFFFFFFE03FFFFFFFF0001FC01FFF67
:10356000FFE000001FC00FFFFFE000001FC007FFCB
:10357000FFE0000C1FC003FFFFE1FFF87FE1E3FF66
:10358000FFE1FFF0FFFFF3FFFFE1FFF1FFFFF1FFBE
:10359000FFE1FFF1FFFFF1FFFFE1FFE3FFFFF9FFB5
:1035A000FFE1FFE3FFFFF9FFFFE1FFE3FFFFF9FFAB
:1035B000FFE1FFE3FFFFF9FFFFE1FFE3FFFFF9FF9B
:1035C000FFE1FFE1FFFFF1FFFFE1FFE1FFFFE1FFAF
:1035D000FFE1FFE0FFFFC3FFFFE1FFF03FFF83FFDD
:1035E000FFE1FFF00FFC03FFFFE1FFF8000007FF22
:1035F000FFE1FFF800000FFFFFE1FFFC00001FFFED
:10360000FFE1FFFF00003FFFFFE3FFFF8000FFFF40
:10361000FFFFFFFFF80FFFFFFFFFFFFFFFFFFFFFB1
:10362000FFFFFFFFFFFFFFFFFFFFFFFFFFFFFFFFAA
:10363000FFFFFFFFFFFFFFFFFFFFFFFFFFFFFFFF9A
:10364000FFFFFFF801FFFFFFFFFFFE000007FFFF86
:10365000FFFFF0000001FFFFFFFFC00000007FFF41
:10366000FFFF000000001FFFFFFE000000000FFF33
:10367000FFFC0000000007FFFFF807F81FF807FF36
:10368000FFF03FF07FFF03FFFFF0FFE0FFFF83FF4E
:10369000FFE1FFE1FFFFE1FFFFE3FFE3FFFFF1FFDA
:1036A000FFC7FFC3FFFFF1FFFFC7FFC7FFFFF9FF22
:1036B000FFCFFFC7FFFFF9FFFFCFFFC7FFFFF9FFF6
:1036C000FFCFFFC7FFFFF9FFFFCFFFC3FFFFF1FFF2
:1036D000FFC7FFC1FFFFF1FFFFC01FC0FFFFE3FFF8
:1036E000FFC01FE07FFF83FFFFE01FE00FF807FF31
:1036F000FFF01FF000000FFFFFF01FF000000FFFB2
:10370000FFFC3FFC00003FFFFFFFFFFE00007FFFCC
:10371000FFFFFFFFC001FFFFFFFFFFFFFFFFFFFFF6
:10372000FFFFFFFFFFFFFFFFFFFFFFFFFFFFFFFFA9
:10373000FFFFFFFFFFFFFFFFFFFFFFFFFFFFFFFF99
:10374000FFFFFFFFFFFFFFFFFFFFF3FFFFFFFFFF95
:10375000FFFC03FFFFFFFFFFFFE003FFFFFFFFFF93
:10376000FFE007FFFFFFFFFFFFE03FFFFFFFFFFF5F
:10377000FFE07FFFFFFFFFFFFFE0FFFFFFFFFFFF17
:10378000FFE1FFFFFFFFFFFFFFE1FFFFFFE003FFA0
:10379000FFE1FFFFFE0001FFFFE1FFFFF00001FF7F
:1037A000FFE1FFFFC00001FFFFE1FFFF000001FF9D
:1037B000FFE1FFFC000001FFFFE1FFE0000003FF6D
:1037C000FFE1FF800FFFFFFFFFE1FE007FFFFFFF34
:1037D000FFE1FC03FFFFFFFFFFE1F01FFFFFFFFF23
:1037E000FFE1C07FFFFFFFFFFFE101FFFFFFFFFFE2
:1037F000FFE007FFFFFFFFFFFFE01FFFFFFFFFFFEF
:10380000FFE07FFFFFFFFFFFFFE1FFFFFFFFFFFF85
:10381000FFE3FFFFFFFFFFFFFFFFFFFFFFFFFFFFD4
:10382000FFFFFFFFFFFFFFFFFFFFFFFFFFFFFFFFA8
:10383000FFFFFFFFFFFFFFFFFFFFFFFFFFFFFFFF98
:10384000FFFFFFFFFF01FFFFFFFF80FFF8007FFF8B
:10385000FFFE003FF0003FFFFFFC001FE0001FFFE6
:10386000FFF8000FC0000FFFFFF0000780FE07FF0A
:10387000FFE07C0307FF83FFFFE1FF010FFFC3FFB2
:10388000FFE3FF803FFFE3FFFFC7FFC07FFFF1FFC4
:10389000FFC7FFE07FFFF1FFFFCFFFE07FFFF9FFF2
:1038A000FFCFFFF07FFFF9FFFFCFFFF83FFFF9FFEA
:1038B000FFCFFFF83FFFF9FFFFCFFFF81FFFF9FF32
:1038C000FFC7FFFC0FFFF1FFFFC7FFF807FFF1FF86
:1038D000FFC3FFF007FFE3FFFFE1FFE101FFE3FFAD
:1038E000FFE0FF8300FF83FFFFF00007803E07FF3C
:1038F000FFF00007C00007FFFFF8000FE0000FFF18
:10390000FFFC003FF0001FFFFFFF007FFC007FFF78
:10391000FFFFFFFFFF01FFFFFFFFFFFFFFFFFFFFB5
:10392000FFFFFFFFFFFFFFFFFFFFFFFFFFFFFFFFA7
:10393000FFFFFFFFFFFFFFFFFFFFFFFFFFFFFFFF97
:10394000FFFFF003FFFFFFFFFFFF80007FFFFFFF90
:10395000FFFE00003FFF1FFFFFFC00001FFC0FFFEA
:10396000FFF800000FFC07FFFFF0000007FC03FF5B
:10397000FFE03FF807FC03FFFFE0FFFF03FC01FF50
:10398000FFE3FFFF83FE01FFFFC7FFFFC3FFF1FF60
:10399000FFC7FFFFC3FFF9FFFFCFFFFFE3FFF9FF03
:1039A000FFCFFFFFE3FFF9FFFFCFFFFFE3FFF1FFD3
:1039B000FFCFFFFFC3FFF1FFFFCFFFFFC3FFE3FF19
:1039C000FFC7FFFF87FFC3FFFFC3FFFF07FF03FF23
:1039D000FFE1FFFE0FFC07FFFFE07FFC1FE00FFF92
:1039E000FFF00FF038001FFFFFF8000000003FFF5E
:1039F000FFFC000000007FFFFFFE00000001FFFF52
:103A0000FFFF00000007FFFFFFFFE000001FFFFFB8
:103A1000FFFFFC0001FFFFFFFFFFFFFFFFFFFFFFB6
:103A2000FFFFFFFFFFFFFFFFFFFFFFFFFFFFFFFFA6
:103A3000FFFFFFFFFFFFFFFFFFFFFFFFFFFFFFFF96
:103A4000FFFFFFFFFFFFFFFFFFFFFFFFFFFFFFFF86
:103A5000FFFFFFFFFFFFFFFFFFFFFFFFFFFFFFFF76
:103A6000FFFFFFFFFFFFFFFFFFFFFFFFFFFFFFFF66
:103A7000FFFFFFFFFFFFFFFFFFFFFFFFFFFFFFFF56
:103A8000FFFFFFFFFFFFFFFFFFFFFFC3FFFF87FFFA
:103A9000FFFFFF81FFFF03FFFFFFFF00FFFE01FFAE
:103AA000FFFFFF00FFFE01FFFFFFFF00FFFE01FF22
:103AB000FFFFFF00FFFE01FFFFFFFF00FFFE01FF12
:103AC000FFFFFF81FFFF03FFFFFFFFC3FFFF87FF34
:103AD000FFFFFFFFFFFFFFFFFFFFFFFFFFFFFFFFF6
:103AE000FFFFFFFFFFFFFFFFFFFFFFFFFFFFFFFFE6
:103AF000FFFFFFFFFFFFFFFFFFFFFFFFFFFFFFFFD6
:103B0000FFFFFFFFFFFFFFFFFFFFFFFFFFFFFFFFC5
:103E2000FFFFFFFFFFFFFFFFF7FFFFFFFFFFFFFFAA
:103E3000FFFFFFFFFFFFFFFFF3FFFFFFE7FFFFFFB6
:103E4000FFFFFFFFFFFFFFFFF3FFFFFFE7FFFFFFA6
:103E5000FFFFFFFFFFFFFFFFF1FFFFFFE3FFFFFF9C
:103E6000FFFFFFFFFFFFFFFFF0F8FFFFE1FCFFFF99
:103E7000FFFFFFFFFFFFFFFFF0C1FFFFE1E1FFFFDB
:103E8000FFFFFE7FF87FFFFFF003FFFFF003FFFF60
:103E9000FFFFF00FF83FFFFFF007FFFFF007FFFF06
:103EA000FFFFE003FC1FFFFE000FFFFF800FFFFF7F
:103EB000FFFFC001FC1FFFF8000FFFF8001FFFFF0E
:103EC000FFFFC001FE1FFFFF000FFFF8001FFFFFF5
:103ED000FFFF8100FE1FFFFFF007FFFFC00FFFFF86
:103EE000FFFF83C0FE0FFFFFF003FFFFF007FFFFA0
:103EF000FFFF87E07E1FFFFFF0E1FFFFF083FFFF82
:103F0000FFFF87E07E1FFFFFF0F8FFFFE1F1FFFFFB
:103F1000FFFF87F03C1FFFFFF1FFFFFFE1FDFFFF09
:103F2000FFFF83F0001FFFFFF3FFFFFFE3FFFFFF33
:103F3000FFFFC3F8003FFFFFF7FFFFFFE7FFFFFFB3
:103F4000FFFFC1FC003FFFFFFFFFFFFFEFFFFFFF91
:103F5000FFFFE1FC007FFFFFFFFFFFFFFFFFFFFF11
:103F6000FFFFFFFF01FFFFFFFFFFFFFFFFFFFFFF5F
:103F7000FFFFFFFFFFFFFFFF3FF8FFFF3FF8FFFFDF
:103F8000FFFFFFFFFFFFFFFF3FF0FFFE3FF0FFFFE0
:103F9000FFFFFFFFFFFFFFFE7FE0FFFE7FE0FFFF71
:103FA000FFFFFFFFFFFFFFFE7FC4FFFC7FC4FFFF9B
:103FB000FFFFC000001FFFFE7F8CFFFC7F8CFFFF18
:103FC000FFFF8000001FFFFE3E1CFFFC7E1CFFFF6A
:103FD000FFFF8000001FFFFE007CFFFE387CFFFF1C
:103FE000FFFF8000001FFFFF00FCFFFE00FCFFFF43
:103FF000FFFF8000001FFFFFC3FCFFFF03FCFFFF6C
:10400000FFFF83F0FE1FFFFFFFFFFFFFFFFCFFFF2F
:10401000FFFF83F0FE1FFFFFFFFFFFFFFFFFFFFF1C
:10402000FFFF83F0FE1FFFFFFFFFFFFFFFFFFFFF0C
:10403000FFFF83F0FE1FFFFFFFFCFFFFFFF9FFFF05
:10404000FFFF83F0FE1FFFFFFFF8FFFE01F9FFFFF8
:10405000FFFF83F0FE1FFFFFFFF8FFFE01FCFFFFE5
:10406000FFFF83F0FE1FFFFFFFFFFFFE79FCFFFF56
:10407000FFFF83FFFE1FFFFFFFFFFFFE79FCFFFF37
:10408000FFFFFFFFFFBFFFFFFFFFFFFE79FCFFFF0A
:10409000FFFFFFFFFFFFFFFFFFFFFFFE78F8FFFFBF
:1040A000FFFFFFFFFFFFFFFFCFFCFFFE7C61FFFF75
:1040B000FFFFFFFFFFFFFFFF9FFCFFFE7E03FFFFF1
:1040C000FFFFC000003FFFFF3FFCFFFFFF07FFFFB8
:1040D000FFFFC000001FFFFE3FFCFFFFFFFFFFFFD1
:1040E000FFFF8000001FFFFE0000FFFFFFFFFFFF3C
:1040F000FFFF8000001FFFFE0000FFFFC00FFFFF5B
:10410000FFFF8000001FFFFFFFFCFFFF0003FFFF1A
:10411000FFFF83F0FE1FFFFFFFFCFFFE1FE1FFFF1D
:10412000FFFF83F0FE1FFFFFFFFCFFFE7FF8FFFF96
:10413000FFFF83F0FE1FFFFFFFFFFFFC7FFCFFFF81
:10414000FFFF83F0FE1FFFFFFFFFFFFCFFFCFFFFF1
:10415000FFFF83F0FE1FFFFFFFF9FFFC7FFCFFFF67
:10416000FFFF83F0FE1FFFFF3FFCFFFE3FF9FFFF55
:10417000FFFF83F0FE1FFFFE3EFCFFFE0001FFFF7E
:10418000FFFF83F0FE1FFFFE7E7CFFFF8007FFFF27
:10419000FFFFC3FFFE1FFFFE7C7E7FFFF03FFFFFA0
:1041A000FFFFFFFFFFFFFFFE7C7CFFFFFFFFFFFF26
:1041B000FFFFFFFFFFFFFFFE387CFFFFFFFFFFFF5A
:1041C000FFFFFFFFFFFFFFFF0038FFFFFFFFFFFFC5
:1041D000FFFFFFFFFFFFFFFF8301FFFFFFFFFFFF69
:1041E000FFFFC000001FFFFFFF83FFFFFFFFFFFF78
:1041F000FFFFC000001FFFFFFFFFFFFFFFFFFFFFEC
:10420000FFFF8000001FFFFFFFFFFFFFFFFFFFFF1B
:10421000FFFF8000001FFFFFFFFFFFFFFFFFFFFF0B
:10422000FFFF807FFFFFFFFE7000FFFE6FFFFFFFBD
:10423000FFFFC01FFFFFFFFE7000FFFE67FFFFFFD5
:10424000FFFFC007FFFFFFFFFFFFFFFF0FFFFFFFA5
:10425000FFFFF001FFFFFFFFFFFFFFFF0BFFFFFF6F
:10426000FFFFFC007FFFFFFFFFFFFFF801FFFFFFE5
:10427000FFFFFF001FFFFFFFF000FFFF0FFFFFFF2B
:10428000FFFFFFC007FFFFFFF000FFFF0FFFFFFF73
:10429000FFFFFFF001FFFFFFF800FFFE67FFFFFFDA
:1042A000FFFFFFFC007FFFFFF1FFFFFFFFFFFFFFAE
:1042B000FFFFFFFF003FFFFFF3FFFFFFFFFFFFFFD9
:1042C000FFFFFFFFC01FFFFFF3FFFFFFFFFFFFFF29
:1042D000FFFFC000001FFFFFF3FFFFFFFFFFFFFF17
:1042E000FFFF8000001FFFFFF1FFFFFFFFFFFFFF49
:1042F000FFFF8000001FFFFFF800FFFFFFFFFFFF31
:10430000FFFFC000001FFFFFFC00FFFFFFFFFFFFDC
:10431000FFFFFFFFFFFFFFFFFFFFFFFFFFFFFFFFAD
:10432000FFFFFFFFFFFFFFFFFFFFFFFFFFFFFFFF9D
:10433000FFFFFFFFFFFFFFFFFF07FFFFFFFFFFFF85
:10434000FFFFFFFFFFFFFFFFF801FFFF9FFCFFFFE5
:10435000FFFFFFE03FFFFFFFF060FFFF1FFCFFFFDD
:10436000FFFFFF0007FFFFFFF3FCFFFF3FFCFFFF26
:10437000FFFFFC0001FFFFFFF3FC7FFE7FFCFFFF60
:10438000FFFFF80000FFFFFFE3FC7FFE0000FFFFE0
:10439000FFFFF000007FFFFFF3FCFFFE0000FFFFC8
:1043A000FFFFE00F803FFFFFF3FCFFFFFFFCFFFF7D
:1043B000FFFFC07FF03FFFFFF9F9FFFFFFFCFFFFAA
:1043C000FFFFC0FFF81FFFFFFFFFFFFFFFFCFFFF26
:1043D000FFFFC1FFFC1FFFFFFFFFFFFFFFFFFFFF0E
:1043E000FFFF83FFFC1FFFFFFFFEFFFFFFFFFFFF3D
:1043F000FFFF83F8FE1FFFFC0000FFFFFFFDFFFF34
:10440000FFFF83F0FE0FFFFC0000FFFE3FF8FFFF01
:10441000FFFF83F07E0FFFFFF9FFFFFE7FE0FFFF4E
:10442000FFFF83F07E1FFFFFF3FFFFFE7FC0FFFF54
:10443000FFFF83F0FE1FFFFFF3FFFFFC7F8CFFFFFA
:10444000FFFF83F0001FFFFFF3FFFFFC7F1CFFFF58
:10445000FFFFC3F0001FFFFFF1FFFFFE7C3CFFFFEB
:10446000FFFFC1F0001FFFFFF000FFFE007CFFFF19
:10447000FFFFC1F0003FFFFFFC00FFFF01FCFFFF5B
:10448000FFFFE0F8003FFFFFFFFFFFFFCFFCFFFF54
:10449000FFFFFFFFFFFFFFFFFFFFFFFFFFFFFFFF2C
:1044A000FFFFFFFFFFFFFFFFFFFFFFFFFFFFFFFF1C
:1044B000FFFFFFFFFFFFFFFFFFFFFFFFFFFFFFFF0C
:1044C000FFFFFFFFFFFFFFFFFFFFFFFF3FF8FFFFC3
:1044D000FFFFFFFFFFBFFFFFFFFFFFFE7FF0FFFFBC
:1044E000FFFFC000001FFFFFFFFFFFFE7FE0FFFF99
:1044F000FFFF8000001FFFFFFFFFFFFC7F8CFFFF1F
:10450000FFFF8000001FFFFFFFFFFFFC7F1CFFFF7E
:10451000FFFF8000001FFFFFFFFFFFFE7E3CFFFF4D
:10452000FFFF83F07FFFFFFE0000FFFE107CFFFF18
:10453000FFFF83F87FFFFFFE0000FFFF01FCFFFF8E
:10454000FFFF83F87FFFFFFE7CFCFFFF87FCFFFF80
:10455000FFFF83F87FFFFFFE7CFCFFFFFFFFFFFFF5
:10456000FFFFC3F03FFFFFFE7CFCFFFFFFFFFFFFED
:10457000FFFFC3F00FFFFFFE7CFCFFFFFFFFFFFF0D
:10458000FFFFC0C001FFFFFE7CFCFFFFFFFFFFFF3E
:10459000FFFFC000003FFFFE7FFCFFFFFFFFFFFFAC
:1045A000FFFFE001001FFFFFFFFFFFFFFFFFFFFF17
:1045B000FFFFE003C01FFFFFFFFFFFFFFFFFFFFF45
:1045C000FFFFF007F01FFFFFFFBFFFFFFFFFFFFF31
:1045D000FFFFFE3FFC1FFFFFFF9FFFFFFFFFFFFFEF
:1045E000FFFFFFFFFF9FFFFFFF9FFFFFFFFDFFFF9D
:1045F000FFFFFFFFFFFFFFFFFF9FFFFE0000FFFF2A
:10460000FFFFFFFFFFFFFFFFFF9FFFFE0001FFFF18
:10461000FFFFFFFFFFFFFFFFFF9FFFFE7E7FFFFF0C
:10462000FFFFC000003FFFFFFFFFFFFE7E7FFFFF99
:10463000FFFF8000001FFFFFFFFFFFFE7E7FFFFFE9
:10464000FFFF8000001FFFFFFFFFFFFE7E7FFFFFD9
:10465000FFFF8000001FFFFFF00007FE387FFFFF15
:10466000FFFF8000001FFFFFF00007FF00FFFFFFBC
:10467000FFFF83F0FE1FFFFFF9F9FFFF81FFFFFF40
:10468000FFFF83F0FE1FFFFFF3FCFFFFFFFFFFFFB5
:10469000FFFF83F0FE1FFFFFF3FE7FFFFFFFFFFF23
:1046A000FFFF83F0FE1FFFFFE3FC7FFFFFFFFFFF25
:1046B000FFFF83F0FE1FFFFFF3FCFFFC6000FFFF26
:1046C000FFFF83F0FE1FFFFFF060FFFC6000FFFFB5
:1046D000FFFF83F0FE1FFFFFF801FFFFFFFFFFFF5B
:1046E000FFFF83F9FE1FFFFFFF0FFFFFFFFFFFFF2D
:1046F000FFFFC7FFFE1FFFFFFFFFFFFFEFFCFFFFF6
:10470000FFFFFFFFFFFFFFFFFFFFFFFFE3F8FFFFDC
:10471000FFFFFFFFFFFFFFFFFBC1FFFFF0E1FFFF18
:10472000FFFFFFFFFE1FFFFFF3C0FFFFF807FFFFC4
:10473000FFFFFFFFF01FFFFFF39CFFFFFE1FFFFFC8
:10474000FFFFFFFF801FFFFFF79E7FFFFE0FFFFFB2
:10475000FFFFFFFC001FFFFFE79EFFFFF843FFFF87
:10476000FFFFFFE0003FFFFFF39CFFFFE1E1FFFFE2
:10477000FFFFFF0001FFFFFFF001FFFFE7F8FFFF72
:10478000FFFFF00007FFFFFFF800FFFFFFFFFFFF45
:10479000FFFFC00087FFFFFFFE00FFFFFFFFFFFFDF
:1047A000FFFF800F87FFFFFFFFFFFFFFFC07FFFFFB
:1047B000FFFF807F87FFFFFFFFFFFFFFF001FFFF8D
:1047C000FFFF80FF87FFFFFFFFFFFFFFE339FFFFD2
:1047D000FFFF801F87FFFFFFF00007FFE73CFFFFA1
:1047E000FFFF800387FFFFFFF00007FFE73CFFFFAD
:1047F000FFFFC00007FFFFFFF9F9FFFFE73CFFFFE6
:10480000FFFFF80003FFFFFFF3FCFFFFE73CFFFFA4
:10481000FFFFFF0000FFFFFFF3FCFFFFF13CFFFF86
:10482000FFFFFFE0001FFFFFE3FE7FFFF839FFFF00
:10483000FFFFFFFC001FFFFFF3FCFFFFFE7FFFFFFA
:10484000FFFFFFFF801FFFFFF1F8FFFFFFFFFFFFEC
:10485000FFFFC7FFF81FFFFFF801FFFFFFFFFFFF8C
:10486000FFFF83FFFF1FFFFFFC03FFFFFFFFFFFFB3
:10487000FFFF83FFFFFFFFFFFFFFFFF80000FFFFC9
:10488000FFFF83FFFFFFFFFFFFFFFFFC0001FFFFB4
:10489000FFFF83FFFFFFFFFFFE07FFFFFFFFFFFF9D
:1048A000FFFF83FFFFFFFFFFF801FFFFFFFFFFFF99
:1048B000FFFF83FFFFFFFFFFF198FFFFFDF9FFFF01
:1048C000FFFF8000001FFFFFF39CFFFFF078FFFF5A
:1048D000FFFF8000001FFFFFF79EFFFFE23CFFFF8E
:1048E000FFFF8000001FFFFFE79E7FFFE73CFFFF09
:1048F000FFFF8000001FFFFFF39EFFFFE71CFFFF8D
:10490000FFFF8000001FFFFFF19CFFFFE798FFFF04
:10491000FFFF83FFFFFFFFFFF81CFFFFE781FFFFA3
:10492000FFFF83FFFFFFFFFFFC3FFFFFFFE3FFFFF2
:10493000FFFF83FFFFFFFFFFFFFFFFFFFFFFFFFF03
:10494000FFFF83FFFFFFFFFFFFFFFFFFFFFFFFFFF3
:10495000FFFF83FFFFFFFFFFFFFFFFFFFFFFFFFFE3
:10496000FFFFC3FFFFFFFFFFF000FFFFFFFFFFFFA1
:10497000FFFFFFFFFFFFFFFFF000FFFFFFFFFFFF55
:10498000FFFFFFFFFFFFFFFFF9FFFFFFFFFFFFFF3D
:10499000FFFFFFFFFFFFFFFFF3FFFFFFFFFFFFFF33
:1049A000FFFFFFFFFFFFFFFFE3FFFFFFFFFFFFFF33
:1049B000FFFFFFFFFFFFFFFFF3FFFFFFFFFFFFFF13
:1049C000FFFFFFFFFFFFFFFFFFFFFFFFFFFFFFFFF7
:1049D000FFFFFFFFFFFFFFFFFFFFFFFFFFFFFFFFE7
:1049E000FFFFFFFFFFFFFFFFFFFFFFFFFFFFFFFFD7
:1049F000FFFFFFFFFFFFFFFFFFFFFFFFFFFFFFFFC7
:104CD000FFFFFFFF9FBFFFFFFFFFFFFFFFFFFFFF84
:104CE000FFFFC03FC03FFFFFFEFFFFFFFFFFFFFFD3
:104CF000FFFF800FF07FFFFFFCFFFFFFFFFFFFFFC5
:104D0000FFFF0007FC7FFFFFFD7FFFFFFFFFFFFFAF
:104D1000FFFE1007FE7FFFFFF93FFFFFFFFFFFFFD2
:104D2000FFFE7C03FF3FFFFFF31FFFFFFFFFFFFFBF
:104D3000FFFE7E01FF3FFFFFE38FFFFFFFFFFFFF4F
:104D4000FFFEFF01FFBFFFFFC7C7FFFFFFFFFFFF22
:104D5000FFFEFF00FFBFFFFE1FF1FFFFFFFFFFFF92
:104D6000FFFE7F80FFBFFFFC7FFC7FFFFFFFFFFF99
:104D7000FFFE7FC07F3FFFFF8FC3FFFFFFFFFFFFEF
:104D8000FFFF3FC03F3FFFFFC38FFFFFFFFFFFFF5E
:104D9000FFFF1FE01C7FFFFFF39FFFFFFFFFFFFFF1
:104DA000FFFF8FF0007FFFFFF93FFFFFFFFFFFFFD7
:104DB000FFFE01F000FFFFFFFD7FFFFFFFFFFFFF92
:104DC000FFFFFDFC01FFFFFFFC7FFFFFFFFFFFFF79
:104DD000FFFFFFFE07FFFFFFFEFFFFFFFFFFFFFFDD
:104DE000FFFFFFFFFFFFFFFFFFFFFFFFFFFFFFFFD3
:104DF000FFFFFFFFFFFFFFFFFFFFFFFFFFFFFFFFC3
:104E0000FFFEFFFFFFBFFFFFFFFFFFFFFFFFFFFFF3
:104E1000FFFEFFFFFFBFFFFFFFFFFFFFFFFFFFFFE3
:104E2000FFFE7FFFFF3FFFFFFFFFFFFFFFFFFFFFD3
:104E3000FFFE0000003FFFFFF007FFFFFFFFFFFF47
:104E4000FFFE0000003FFFFFC003FFFFFFFFFFFF6B
:104E5000FFFE0000003FFFFF8080FFFFFFFFFFFF1E
:104E6000FFFE0000003FFFFF1FF8FFFFFFFFFFFFF7
:104E7000FFFE0000003FFFFF7FFE7FFFFFFFFFFF01
:104E8000FFFE0000003FFFFE7FFE7FFFFFFFFFFFF2
:104E9000FFFE7FE7FF3FFFFEFFFF7FFFFFFFFFFFFC
:104EA000FFFE7FE7FF3FFFFEFFFF7FFFFFFFFFFFEC
:104EB000FFFE7FE3FF3FFFFEFFFF7FFFFFFFFFFFE0
:104EC000FFFE7FC1FF3FFFFEFFFF7FFFFFFFFFFFF2
:104ED000FFFE7C001F3FFFFF7FFE7FFFFFFFFFFF06
:104EE000FFFE7FFFFF3FFFFF3FFEFFFFFFFFFFFFD4
:104EF000FFFE3FFFFF3FFFFE0FF9FFFFFFFFFFFF3A
:104F0000FFFE3FFFFE3FFFFFFFFFFFFFFFFFFFFF33
:104F1000FFFE0FFFFC3FFFFFFFFFFFFFFEFFFFFF56
:104F2000FFFE01FFF83FFFFFFFCFFFFFFE7FFFFF08
:104F3000FFFFFFFFE03FFFFFFE01FFFFFD7FFFFFE1
:104F4000FFFFFFFF83FFFFFFFC00FFFFF93FFFFFB5
:104F5000FFFFFFFFFFFFFFFFF9FC7FFFF19FFFFF58
:104F6000FFFFFFFFFFFFFFFFFBFF7FFFE387FFFF69
:104F7000FFFEFFFFFFBFFFFFFBFF7FFF87E3FFFF9A
:104F8000FFFEFFFFFFBFFFFFFBFF7FFE3FFC7FFF3A
:104F9000FFFE7FFFFF3FFFFFF9FE7FFE1FF8FFFFD1
:104FA000FFFE0000003FFFFFFC00FFFFC7C3FFFF45
:104FB000FFFE0000003FFFFFFE01FFFFE38FFFFF4A
:104FC000FFFE0000003FFFFFFF8FFFFFF19FFFFF8D
:104FD000FFFE0000003FFFFFFFFFFFFFF93FFFFF65
:104FE000FFFE0000003FFFFFFFFFFFFFFD7FFFFF11
:104FF000FFFE0000003FFFFE7FFF7FFFFE7FFFFF01
:10500000FFFE7FE7FE3FFFFE00007FFFFEFFFFFF8A
:10501000FFFE7FE7FF3FFFFE00007FFFFFFFFFFF78
:10502000FFFE7FE3FF3FFFFFFFFF7FFFFFFFFFFF6D
:10503000FFFE7FC1FF3FFFFFFFFFFFFFFFFFFFFFFF
:10504000FFFE7F007F3FFFFFFF87FFFFFFFFFFFFA8
:10505000FFFE7C001F3FFFFFFE01FFFFFFFFFFFF82
:10506000FFFE3FFFFF3FFFFFFC60FFFEFFFF7FFFF4
:10507000FFFE3FFFFE3FFFFFFBFE7FFF00007FFFC5
:10508000FFFE1FFFFE3FFFFFFBFF7FFF00007FFFD4
:10509000FFFE07FFFC3FFFFFFBFF7FFF00007FFFDE
:1050A000FFFF01FFF03FFFFFFBFF7FFEFFFF7FFFE2
:1050B000FFFFFFFFC07FFFFFF8FE7FFFFFFFFFFF47
:1050C000FFFFFFFFFFFFFFFFFC00FFFFFFFFFFFFF2
:1050D000FFFFFFFFFFFFFFFFFE03FFFFFDFF7FFF5F
:1050E000FFFEFFFFFFBFFFFFFFFFFFFFF8007FFF97
:1050F000FFFEFFFFFFBFFFFFFFFFFFFFF8007FFF87
:10510000FFFE7FFFFF3FFFFFF9FF7FFFFEFF7FFFF7
:10511000FFFE3FFFFE3FFFFFF8007FFFFDFFFFFFA9
:10512000FFFE0000003FFFFFF8007FFFF9FFFFFFD9
:10513000FFFE07FFFE3FFFFFFDFF7FFFF9FF7FFF41
:10514000FFFE01FFFF3FFFFFF9FFFFFFF8007FFFBA
:10515000FFFE00FFFFBFFFFFF9FFFFFFFC007FFF27
:10516000FFFE007FFFBFFFFFF9FFFFFFFFFF7FFF95
:10517000FFFF801FFFFFFFFFFFFFFFFFFFFFFFFF9E
:10518000FFFFC00FFFFFFFFFFFFFFFFFFBFFFFFF62
:10519000FFFFE007FFFFFFFFF8FC7FFFFBFFFFFFC4
:1051A000FFFFF801FFFFFFFFF8FC7FFFE0007FFF3C
:1051B000FFFFFC00FFFFFFFFFFFFFFFFC0007FFFBF
:1051C000FFFFFF003FFFFFFFFFFFFFFFFBFF7FFF32
:1051D000FFFFFF801FFFFFFFFFFFFFFFFBFE7FFFC3
:1051E000FFFFFFC00FFFFFFEFFFF7FFFFFFFFFFF7F
:1051F000FFFEFFF003FFFFFE7FFE7FFFFF83FFFF49
:10520000FFFE7FF801FFFFFE00007FFFFE00FFFFB3
:10521000FFFE7FFE007FFFFE00007FFFFDB87FFFE7
:10522000FFFE0000003FFFFE7EFF7FFFFBBC7FFF15
:10523000FFFE1FFFFFFFFFFEFEFF7FFFFBBE3FFFE6
:10524000FFFE7FFFFFFFFFFEFEFF7FFFFBBE3FFF76
:10525000FFFEFFFFFFFFFFFE7E7F7FFFF8BE7FFFA9
:10526000FFFFFFFFFFFFFFFE7E7F7FFFFC3CFFFF96
:10527000FFFFFFFFFFFFFFFF3C7E7FFFFE39FFFFC9
:10528000FFFFFFFFFFFFFFFF001C7FFFFFFFFFFF90
:10529000FFFFFF003FFFFFFF8100FFFFFDFFFFFF5C
:1052A000FFFFF8000FFFFFFFC381FFFFFDFF7FFF40
:1052B000FFFFF00007FFFFFFFFE7FFFFF8007FFFA2
:1052C000FFFFE00001FFFFFFFFFFFFFFF8007FFF90
:1052D000FFFFC00001FFFFFFFFFFFFFFFDFF7FFF9C
:1052E000FFFF800000FFFFFEFFFF7FFFF9FFFFFFD2
:1052F000FFFF00FFC07FFFFE00007FFFF8FFFFFF02
:10530000FFFF07FFF87FFFFE00007FFFFDFFFFFFAD
:10531000FFFE1FFFFE3FFFFFFFFF7FFFFBFFFFFFC3
:10532000FFFE3FFFFF3FFFFFFFFFFFFFFBFF7FFF92
:10533000FFFE7FFFFF3FFFFFFFFFFFFFE0007FFF5C
:10534000FFFE7FFFFF3FFFFFFEF0FFFF00007FFF3C
:10535000FFFE7FFFFFBFFFFFFC607FFE39FE7FFF88
:10536000FFFEFFFFFFBFFFFFF8EE7FFEFBFFFFFF2B
:10537000FFFE7FFDFFBFFFFFFBDE7FFEFBFFFFFFAA
:10538000FFFE7FFEFF3FFFFFFBDEFFFE7FFFFFFF15
:10539000FFFE7FFEFF3FFFFFF9BEFFFE3E70FFFFF7
:1053A000FFFF3FFE003FFFFFF8007FFF3C607FFFF5
:1053B000FFFF3FFE003FFFFFFC007FFFF9EE7FFF96
:1053C000FFFF1FFE007FFFFFFFFE7FFFFBDF7FFF72
:1053D000FFFF87FE007FFFFFFFFFFFFFFBDE7FFF7A
:1053E000FFFF01FE007FFFFFFFFFFFFFF99EFFFFB2
:1053F000FFFE00FE00FFFFFFFE01FFFFFC007FFF3E
:10540000FFFFFFFEFFFFFFFFFC00FFFFFE007FFF2F
:10541000FFFFFFFEFFFFFFFFF9FC7FFFFFFE7FFFA7
:10542000FFFFFFFFFFFFFFFFFBFE7FFFFFFFFFFF11
:10543000FFFFFFFFFFFFFFFFFBFE7FFFFFC7FFFF39
:10544000FFFEFFFFFFBFFFFFFBFE7FFFFE01FFFF31
:10545000FFFEFFFFFFBFFFFFF87EFFFFFC607FFF47
:10546000FFFE3FFFFE3FFFFFFC79FFFFF9FC7FFFE0
:10547000FFFE0000003FFFFFFFFFFFFFFBFE3FFFBF
:10548000FFFE0000003FFFFFFFFFFFFFFBFE3FFFAF
:10549000FFFE0000003FFFFEFFFF7FFFF9FE7FFFE2
:1054A000FFFE0000003FFFFE00007FFFF87EFFFFD1
:1054B000FFFE0000003FFFFC00007FFFFC79FFFFC4
:1054C000FFFE7FF3FF3FFFFFFFDF7FFFFFFFFFFFD9
:1054D000FFFE7FF3FFBFFFFFFF8FFFFFFFFFFFFF19
:1054E000FFFE7FF1FFBFFFFFFF43FFFFFF01FFFF55
:1054F000FFFE7FF07FFFFFFFFAF17FFFFC00FFFF61
:10550000FFFE7FF03FFFFFFFF9F87FFFF9B87FFF55
:10551000FFFE3FE00FFFFFFFFBFE7FFFFBBE7FFFB5
:10552000FFFF1FC003FFFFFFFBFF7FFFFBBE3FFF2F
:10553000FFFF000001FFFFFFFFFF7FFFF9BE7FFFBE
:10554000FFFF0004007FFFFFFFFFFFFFF83E7FFF2C
:10555000FFFF8007003FFFFFFFE0FFFFFC3CFFFF76
:10556000FFFF800FC03FFFFFFF807FFFFF3BFFFF7C
:10557000FFFFC01FE03FFFFFFF187FFFFFFFFFFFA0
:10558000FFFFF07FF83FFFFFFF7E7FFFFFFFFFFF82
:10559000FFFFFFFFFC3FFFFF00FF7FFFFDFFFFFF5F
:1055A000FFFFFFFFFF3FFFFF007F7FFFF8FE7FFF52
:1055B000FFFFFFFFFFBFFFFEF81E7FFFF8FE7FFF2C
:1055C000FFFFFFFFFFFFFFFEFB06FFFFFFFFFFFFE9
:1055D000FFFEFFFFFFBFFFFEF381FFFFFFFFFFFFA7
:1055E000FFFEFFFFFFBFFFFE07E1FFFFFFFFFFFF23
:1055F000FFFE7FFFFF3FFFFF8FE0FFFFC3F07FFF56
:10560000FFFE0000003FFFFFFB9C7FFF01FC7FFFD0
:10561000FFFE0000003FFFFFF83E7FFF70FE7FFFB0
:10562000FFFE0000003FFFFFF8FE7FFE787F7FFF58
:10563000FFFE0000003FFFFFF9FE7FFEFC7F3FFF03
:10564000FFFE0000003FFFFFFFFCFFFEFE3F3FFFAD
:10565000FFFE0000003FFFFFFFFFFFFF7E1F3FFF39
:10566000FFFE7FE7FF3FFFFFFFFFFFFF3F0F7FFFD3
:10567000FFFE7FE7FF3FFFFEFFFFFFFF0F807FFF83
:10568000FFFE7FE3FF3FFFFE3FFFFFFFFFC0FFFF87
:10569000FFFE7FC1FF3FFFFE07FFFFFFFFFFFFFF92
:1056A000FFFE7E003F3FFFFE00FFFFFFFFFFFFFF0B
:1056B000FFFE7FE01F3FFFFEF00FFFFFFFFFFFFF3A
:1056C000FFFE3FFFFF3FFFFFFE01FFFEFFFF7FFFEB
:1056D000FFFE3FFFFE3FFFFFFFC07FFF00007FFF99
:1056E000FFFE1FFFFC3FFFFEFFE1FFFF00007FFF0B
:1056F000FFFE03FFF83FFFFE7F0FFFFF00007FFF6D
:10570000FFFF81FFF03FFFFE087FFFFF7F7F7FFFEE
:10571000FFFFFFFF81FFFFFE01FFFFFF7F7FFFFF16
:10572000FFFFFFFFFFFFFFFEE03FFFFF7F7FFFFF69
:10573000FFFFFFFFFFFFFFFEFC07FFFF3E7FFFFFB6
:10574000FFFFFFFFFFBFFFFFFF807FFF007FFFFF27
:10575000FFFFFFFFFF3FFFFFFFF07FFF80FFFFFF27
:10576000FFFFFFFFFE3FFFFFFF83FFFFC1FFFFFFC4
:10577000FFFFFFFFF83FFFFEFC3FFFFFFFFFFFFFC4
:10578000FFFFFFFFC03FFFFEE1FFFFFFFFFFFFFF47
:10579000FFFFFFFF0F3FFFFE1FFFFFFEFFFF7FFF2B
:1057A000FFFFFFF83FBFFFFE7FFFFFFF3FFE7FFFD2
:1057B000FFFFFFE1BFFFFFFEFFFFFFFF00007FFFD6
:1057C000FFFFFF0FBFFFFFFFFFFFFFFF00007FFF97
:1057D000FFFFFC3FBFFFFFFEFFFF7FFE7FFF7FFF5E
:1057E000FFFFE07FBFFFFFFE00007FFFFFFFFFFF27
:1057F000FFFF001FBFFFFFFC00007FFFFFFFFFFF59
:10580000FFFE0003BFFFFFFFFCFF7FFFFFFFFFFF67
:10581000FFFF80003FBFFFFFF9FFFFFFFFFFFFFF1C
:10582000FFFFF0001FBFFFFFFBFFFFFFFFFFFFFFBA
:10583000FFFFFC0003BFFFFFF9FF7FFFFFFFFFFF3C
:10584000FFFFFF80003FFFFFF8007FFFFFFFFFFF2C
:10585000FFFFFFE0003FFFFFFC007FFFFFFFFFFFB8
:10586000FFFFFFFC003FFFFFFFFF7FFFFFFFFFFF8A
:10587000FFFFFFFF003FFFFFFFFFFFFFFFFFFFFFF7
:10588000FFFFFFFFE03FFFFFFFFFFFFFFFFFFFFF07
:10589000FFFFFFFFF83FFFFFF9FF7FFFFFFFFFFF65
:1058A000FFFFFFFFFF3FFFFE78007FFFFFFFFFFFCF
:1058B000FFFFFFFFFFBFFFFE78007FFFFFFFFFFF3F
:1058C000FFFE03FFFFFFFFFFFFFF7FFFFFFFFFFF65
:1058D000FFFE1FFFFFFFFFFFFFFFFFFFFFFFFFFFB9
:1058E000FFFE3FFFFFFFFFFFFBFFFFFFFFFFFFFF8D
:1058F000FFFE7FFFFFFFFFFFF3FFFFFFFFFFFFFF45
:10590000FFFE7FFFFFBFFFFFE000FFFFFFFFFFFF86
:10591000FFFE7FFFFFBFFFFF80007FFFFFFFFFFF56
:10592000FFFE7FFFFF3FFFFFFBFE7FFFFFFFFFFF4D
:10593000FFFE0000003FFFFFFBFEFFFFFFFFFFFF3A
:10594000FFFE0000003FFFFFFFFFFFFFFFFFFFFF25
:10595000FFFE0000003FFFFFFF87FFFFFFFFFFFF8D
:10596000FFFE0000003FFFFFFC01FFFFFFFFFFFF06
:10597000FFFE0000003FFFFFF9B0FFFFFFFFFFFF4A
:10598000FFFE0000003FFFFFFBBC7FFFFFFFFFFFAC
:10599000FFFE7FFFFF3FFFFFFBBE7FFFFFFFFFFF1D
:1059A000FFFE7FFFFFBFFFFFFBBE7FFFFFFFFFFF8D
:1059B000FFFE7FFFFFBFFFFFF93E7FFFFFFFFFFFFF
:1059C000FFFE7FFFFFFFFFFFF83CFFFFFFFFFFFF32
:1059D000FFFE3FFFFFFFFFFFFE39FFFFFFFFFFFF5F
:1059E000FFFE1FFFFFFFFFFFFFFFFFFFFFFFFFFFA8
:1059F000FFFE0FFFFFFFFFFFFFFFFFFFFFFFFFFFA8
:105A0000FFFE03FFFFFFFFFFFFFFFFFFFFFFFFFFA3
:105A1000FFFFFFFFFFFFFFFFFFFFFFFFFFFFFFFF96
:105A2000FFFFFFFFFFFFFFFFFFFFFFFFFFFFFFFF86
:105A3000FFFFFFFFFFFFFFFFFFFFFFFFFFFFFFFF76
:105A4000FFFFFFFFFFFFFFFFFFFFFFFFFFFFFFFF66
:105A5000FFFFFFFFFFFFFFFFFFFFFFFFFFFFFFFF56
:105A6000FFFFFFFFFFFFFFFFFFFFFFFFFFFFFFFF46
:105A7000FFFFFFFFFFFFFFFFFFFFFFFFFFFFFFFF36
:105A8000FFFFFFFFFFFFFFFFFFFFFFFFFFFFFFFF26
:105A9000FFFFFFFFFFFFFFFFFFFFFFFFFFFFFFFF16
:105AA000FFFFFFFFFFFFFFFFFFFFFFFFFFFFFFFF06
:105AB000FFFFFFFFFFFFFFFFFFFFFFFFFFFFFFFFF6
:105AC000FFFFFFFFFFFFFFFFFFFFFFFFFFFFFFFFE6
:105AD000FFFFFFFFFFFFFFFFFFFFFFFFFFFFFFFFD6
:105AE000FFFFFFFFFFFFFFFFFFFFFFFFFFFFFFFFC6
:105AF000FFFFFFFFFFFFFFFFFFFFFFFFFFFFFFFFB6
:105B0000FFFFFFFFFFFFFFFFFFFFFFFFFFFFFFFFA5
:105B1000FFFFFFFFFFFFFFFFFFFFFFFFFFFFFFFF95
:105B2000FFFFFFFFFFFFFFFFFFFFFFFFFFFFFFFF85
:105B3000FFFFFFFFFFFFFFFFFFFFFFFFFFFFFFFF75
:105B4000FFFFFFFFFFFFFFFFFFFFFFFFFFFFFFFF65
:105B5000FFFFFFFFFFFFFFFFFFFFFFFFFFFFFFFF55
:105B6000FFFFFFFFFFFFFFFFFFFFFFFFFFFFFFFF45
:105B7000FFFFFFFFFFFFFFFFFFFFFFFFFFFFFFFF35
:105B8000FFFFFFFFFFFFFFFFFFFFFFFFFFFFFFFF25
:105B9000FFFFFFFFFFFFFFFFFFFFFFFFFFFFFFFF15
:105BA000FFFFFFFFFFFFFFFFFFFFFFFFFFFFFFFF05
:105BB000FFFFFFFFFFFFFFFFFFFFFFFFFFFFFFFFF5
:105BC000FFFFFFFFFFFFFFFFFFFFFFFFFFFFFFFFE5
:105BD000FFFFFFFFFFFFFFFFFFFFFFFFFFFFFFFFD5
:105BE000FFFFFFFFFFFFFFFFFFFFFFFFFFFFFFFFC5
:105BF000FFFFFFFFFFFFFFFFFFFFFFFFFFFFFFFFB5
:105C0000FFFFFFFFE000000000000000FFFFFFFFBC
:105C1000FFFFFFFF9FFFFFFFFFFFFFFF3FFFFFFFB4
:105C2000FFFFFFFE7FFFFFFFFFFFFFFFDFFFFFFF25
:105C3000FFFFFFFDFFFFFFFFFFFFFFFFEFFFFFFF86
:105C4000FFFFFFFBFFFFFFFFFFFFFFFFF7FFFFFF70
:105C5000FFFFFFF7FFFFFFFFFFFFFFFFFBFFFFFF60
:105C6000FFFFFFFFFFFFFFFFFFFFFFFFFDFFFFFF46
:105C7000FFFFFFEFFFFFFFFFFFFFFFFFFDFFFFFF46
:105C8000FFFFFFDFFFFFFFFFFFFFFFFFFEFFFFFF45
:105C9000FFFFFFDFFFFFFFFFFFFFFFFFFEFFFFFF35
:105CA000FFFFFFDFFFFFFFFFFFFFFFFFFFFFFFFF24
:105CB000FFFFFFFFFFFFFFFFFFFFFFFFFF7FFFFF74
:105CC000FFFFFFBFFFFFFFFFFFFFFFFFFF7FFFFFA4
:105CD000FFFFFFBFFFFFFFFFFFFFFFFFFF7FFFFF94
:105CE000FFFFFFBFFFFFFFFFFFFFFFFFFF7FFFFF84
:105CF000FFFFFFBFFFFFFFFFFFFFFFFFFF7FFFFF74
:105D0000FFFFFFBFFFFFFFFFFFFFFFFFFF7FFFFF63
:105D1000FFFFFFBFFFFFFFFFFFFFFFFFFF7FFFFF53
:105D2000FFFFFFBFFFFFFFFFFFFFFFFFFF7FFFFF43
:105D3000FFFFFFBFFFFFFFFFFFFFFFFFFF7FFFFF33
:105D4000FFFFFFBFFFFFFFFFFFFFFFFFFF7FFFFF23
:105D5000FFFFFFBFFFFFFFFFFFFFFFFFFF7FFFFF13
:105D6000FFFFFFBFFFFFFFFFFFFFFFFFFF7FFFFF03
:105D7000FFFFFFBFFFFFFFFFFFFFFFFFFF7FFFFFF3
:105D8000FFFFFFBFFFFFFFFFFFFFFFFFFF7FFFFFE3
:105D9000FFFFFFBFFFFFFFFFFFFFFFFFFF7FFFFFD3
:105DA000FFFFFFBFFFFFFFFFFFFFFFFFFF7FFFFFC3
:105DB000FFFFFFBFFFFFFFFFFFFFFFFFFF7FFFFFB3
:105DC000FFFFFFBFFFFFFFFFFFFFFFFFFF7FFFFFA3
:105DD000FFFFFFBFFFFFFFFFFFFFFFFFFF7FFFFF93
:105DE000FFFFFFBFFFFFFFFFFFFFFFFFFF7FFFFF83
:105DF000FFFFFFBFFFFFFFFFFFFFFFFFFF7FFFFF73
:105E0000FFFFFFBFFFFFFFFFFFFFFFFFFF7FFFFF62
:105E1000FFFFFFBFFFFFFFFFFFFFFFFFFF7FFFFF52
:105E2000FFFFFFBFFFFFFFFFFFFFFFFFFF7FFFFF42
:105E3000FFFFFFBFFFFFFFFFFFFFFFFFFF7FFFFF32
:105E4000FFFFFFBFFFFFFFFFFFFFFFFFFF7FFFFF22
:105E5000FFFFFFBFFFFFFFFFFFFFFFFFFF7FFFFF12
:105E6000FFFFFFBFFFFFFFFFFFFFFFFFFF7FFFFF02
:105E7000FFFFFFBFFFFFFFFFFFFFFFFFFF7FFFFFF2
:105E8000FFFFFFBFFFFFFFFFFFFFFFFFFF7FFFFFE2
:105E9000FFFFFFBFFFFFFFFFFFFFFFFFFF7FFFFFD2
:105EA000FFFFFFBFFFFFFFFFFFFFFFFFFF7FFFFFC2
:105EB000FFFFFFBFFFFFFFFFFFFFFFFFFF7FFFFFB2
:105EC000FFFFFFBFFFFFFFFFFFFFFFFFFF7FFFFFA2
:105ED000FFFFFFBFFFFFFFFFFFFFFFFFFF7FFFFF92
:105EE000FFFFFFBFFFFFFFFFFFFFFFFFFF7FFFFF82
:105EF000FFFFFFBFFFFFFFFFFFFFFFFFFF7FFFFF72
:105F0000FFFFFFBFFFFFFFFFFFFFFFFFFF7FFFFF61
:105F1000FFFFFFBFFFFFFFFFFFFFFFFFFF7FFFFF51
:105F2000FFFFFFBFFFFFFFFFFFFFFFFFFF7FFFFF41
:105F3000FFFF3FBFFFFFFFFFFFFFFFFFFF7FFFFFF1
:105F4000FC1F1FBFFFFFFFFFFFFFFFFFFF7FFFFFE4
:105F5000F80F9FBFFFFFFFFFFFFFFFFFFF7FFFFF68
:105F6000F00F8FBFFFFFFFFFFFFFFFFFFF7FFFFF70
:105F7000F0078FBFFFFFFFFFFFFFFFFFFF7FFFFF68
:105F8000F1878FBFFFFFFFFFFFFFFFFFFF7EFE7F59
:105F9000F3C38FBFFFFFFFFFFFFFFFFFFF7EFC7F0D
:105FA000F3C38FBFFFFFFFFFFFFFFFFFFF7CFC7FFF
:105FB000F1E01FBFFFFFFFFFFFFFFFFFFF7CFB7F45
:105FC000F1E01FBFFFFFFFFFFFFFFFFFFF7EE37F4B
:105FD000F9F03FBFFFFFFFFFFFFFFFFFFF7E0F7FD7
:105FE000FFF87FBFFFFFFFFFFFFFFFFFFF7F1F7F68
:105FF000FFFFFFBFFFFFFFFFFFFFFFFFFF7FFFFF71
:10600000FFFFFFBFFFFFFFFFFFFFFFFFFF7FFFFF60
:10601000F8001FBFFFFFFFFFFFFFFFFFFF7FFF7FB6
:10602000F0000FBFFFFFFFFFFFFFFFFFFF7FFE7FBF
:10603000F0000FBFFFFFFFFFFFFFFFFFFF7FFFFF2E
:10604000F0000FBFFFFFFFFFFFFFFFFFFF7FFFFF1E
:10605000F1C78FBFFFFFFFFFFFFFFFFFFF7FFFFFC6
:10606000F1C78FBFFFFFFFFFFFFFFFFFFF7F7F7FB6
:10607000F1C78FBFFFFFFFFFFFFFFFFFFF7F7F7FA6
:10608000F1C78FBFFFFFFFFFFFFFFFFFFF7EFF7F17
:10609000F1C78FBFFFFFFFFFFFFFFFFFFF7E007F06
:1060A000F1C78FBFFFFFFFFFFFFFFFFFFF7E007FF6
:1060B000F3FF9FBFFFFFFFFFFFFFFFFFFF7FFF7F9C
